0211725070147652016010100004+41733-071433FM-12+001999999V0203101N004119999999N016000199+00561-00281101721ADDGA1999+012501999GE19MSL   +99999+99999GF108991999999012501999999KA1120M+01001KA2120N+00281MA1999999101531MD1110141+9999REMSYN08072507 32666 83108 10056 21028 30153 40172 51014 92351 333 10100 20028 555 90100=
0236725070147652016010100517+41722-071433FM-15+0019KPVD V0303005N004152200059N0160935N5+00445-00335101715ADDAA101000095GA1025+013725999GD11991+0137259GE19AGL   +99999+99999GF102995999999013721999999MA1101735101505REMMET10012/31/15 19:51:03 METAR KPVD 010051Z 30008KT 10SM FEW045 04/M03 A3004 RMK AO2 SLP171 T00441033 (CMT)EQDD01      0ADE726
0236725070147652016010101517+41722-071433FM-15+0019KPVD V0303005N004652200059N0160935N5+00445-00395101745ADDAA101000095GA1025+013725999GD11991+0137259GE19AGL   +99999+99999GF102995999999013721999999MA1101735101505REMMET10012/31/15 20:51:03 METAR KPVD 010151Z 30009KT 10SM FEW045 04/M04 A3004 RMK AO2 SLP174 T00441039 (CMT)EQDD01      0ADE726
0248725070147652016010102517+41722-071433FM-15+0019KPVD V0303105N00575012195MN0160935N5+00395-00395101755ADDAA101000095GA1075+012195999GD13991+0121959GE19MSL   +99999+99999GF199999999999012191999999MA1101765101535MD1390039+9999OC100885REMMET10912/31/15 21:51:03 METAR KPVD 010251Z 31011G17KT 10SM BKN040 04/M04 A3005 RMK AO2 SLP175 T00391039 53003 (CMT)
0217725070147652016010103517+41722-071433FM-15+0019KPVD V0302705N00265011585MN0160935N5+00395-00335101775ADDAA101000095GA1075+011585999GD13991+0115859GE19MSL   +99999+99999GF199999999999011581999999MA1101765101535REMMET10012/31/15 22:51:03 METAR KPVD 010351Z 27005KT 10SM BKN038 04/M03 A3005 RMK AO2 SLP177 T00391033 (CMT)
0268725070147652016010104517+41722-071433FM-15+0019KPVD V0302505N00265012805MN0160935N5+00335-00335101705ADDAA101000095GA1085+012805999GD14991+0128059GE19MSL   +99999+99999GF199999999999012801999999KA1240M+01001KA2240N+00171MA1101695101465REMMET12512/31/15 23:51:03 METAR KPVD 010451Z 25005KT 10SM OVC042 03/M03 A3003 RMK AO2 SLP170 LAST AUGMENTED T00331033 401000017 (CMT)
0994725070147652016010104596+41722-071433SOD  +0019KPVD V030999999999999999999999999999+99999+99999999999ADDAA124005395AJ100009599999999AN1024000095AX1015245KA1240M+01005KA2240N+00175KG1024W+0028D4KG2024D+0000D4MF1101424101634MG1101414101424OE11240111833099995OE22240080531099995OE33240036299999995RH1024X097D4RH2024N055D4RH3024M072D4REMSOD75624 HR PRECIPITATION (IN): 0.21 SNOW DEPTH (IN):0     24 HR SNOWFALL (IN):0.0  WEATHER(CODE):1  24 HR MAX TEMP (F): 5024 HR MIN TEMP (F): 35AVERAGE STATION PRESSURE:29.945 MINIMUM SEA LEVEL PRESSURE:29.95 TIME OF OCCURRENCE:1303 PEAK WIND SPEED (MPH): 25 PEAK WIND DIR (DEG):330 PEAK WIND TIME (LST):      FASTEST 2MIN SPEED (MPH): 18FASTEST 2MIN DIR (DEG):310 FASTEST 2MIN TIME (LST):     AVERAGE WIND SPEED (MPH): 8.1 24 HR AVG TEMP (F): 43DEPART FROM NORMAL: 13  HEATING DEGREE DAYS: 22 COOLING DEGREE DAYS:  0 LATEST DAY MAX TEMP (0700-1900 LST):50  LATEST NIGHT MIN TEMP(1900-0800 LST):33 HOURLY INCREMENTAL PRECIPITATION VALUES (IN):.07 0.05 0.06 0.02 T    T    0.01 T    0.00 0.00 0.00 0.00 0.00 0.00 0.00 0.00 0.00 0.00 0.00 0.00 0.00 0.00 0.00 0.00
1463725070147652016010104596+41722-071433SOM  +0019KPVD V030999999999999999999999999999+99999+99999999999ADDAB1012199AAD1004509232499999999UAE1135105045015AH1005003392323545AH2010004892323555AH3015005892400005AH4020006992400085AH5030009792400175AH6045013592400335AI1060015592400345AI2080018392400345AI3100020892400345AI4120021892400385AI5150022692400495AI6180023692400495AK100009999999UAM100159292999999999UAN1744001595KB1744N+0328AKB2744M+1227UKB3744A+0778UKC1N9-00273099995KC2M9+02052499995KD1744H05836KD2744C00005KE100U00U11U00UMH110169U10190UMK110379050951U09912150526UREMSOM887PCP MTOT:4.80 DEPNRM:+0.58 PCP GT 24HRS:1.77 DATE(S):23-24 DAYS W/PCP >=.01:13 DAYS W/PCP >=.10:10 DAYS W/ PCP >=.50:4 DAYS W/PCP >=1.00:1 MSDP AMTS W/DATE-TIME TAGS:MIN:5 0.13  23/2354 MIN:10 0.19  23/2355 MIN:15 0.23  24/0000 MIN:20 0.27  24/0008 MIN:30 0.38  24/0017 MIN:45 0.53  24/0033 MIN:60 0.61  24/0034 MIN:80 0.72  24/0034 MIN:100 0.82  24/0034 MIN:120 0.86  24/0038 MIN:150 0.89  24/0049 MIN:180 0.93  24/0049 SN GT DP ON GRND:1 DATE(S):29 SN GT IN 24HRS:0.6 DATE(S): 29SN MTOT:0.6 AVG DLY MIN:37.9  AVG DLY MAX:54.0  AVG MLY TMP:46.0  DEP NORM:11.7  MIN TMP:27 DATE(S):30 MAX TMP:69  DATE(S):24 DAYS MAX <=32:0 DAYS MAX >=90:0  DAYS MIN <=32:11 DAYS MIN  <=0:0  AVG STP:30.025 LWST SLP:29.27 DATE/TIME:150526 HGST SLP:30.66 DATE/TIME:050841 HDD MTH TOT:583 DEP NORM:-369 SEASON(JUL 1-JUN 30):1464 DEP NORM:-563 CDD MTH TOT:0 DEP NORM: 0 SEASON(JAN 1-DEC 31):955 DEP NORM:+211EQDR01  4.807ABP070R02  1.777ADP081R03  37.97KBN009R04  54.07KBX005R05  46.07KBM012R06   5837KDH044
0269725070147652016010105517+41722-071433FM-15+0019KPVD V0302705N00315012505MN0160935N5+00335-00445101655ADDAA101000095GA1085+012505999GD14991+0125059GE19MSL   +99999+99999GF199999999999012501999999KA1060M+00561KA2060N+00331MA1101665101435MD1890109+9999REMMET11201/01/16 00:51:02 METAR KPVD 010551Z 27006KT 10SM OVC041 03/M04 A3002 RMK AO2 SLP165 T00331044 10056 20033 58010
0211725070147652016010106004+41733-071433FM-12+001999999V0202701N003119999999N016000199+00331-00441101651ADDGA1999+012501999GE19MSL   +99999+99999GF108991999999012501999999KA1240M+01001KA2240N+00281MA1999999101461MD1810101+9999REMSYN08072507 32666 82706 10033 21044 30146 40165 58010 90551 333 10100 20028 555 90106=
0230725070147652016010106517+41722-071433FM-15+0019KPVD V0302605N002152200059N0160935N5+00285-00445101645ADDAA101000095GA1045+012505999GD12991+0125059GE19AGL   +99999+99999GF104995999999012501999999MA1101635101405REMMET09401/01/16 01:51:02 METAR KPVD 010651Z 26004KT 10SM SCT041 03/M04 A3001 RMK AO2 SLP164 T00281044EQDD01      0ADE726
0230725070147652016010107517+41722-071433FM-15+0019KPVD V0302605N002652200059N0160935N5+00225-00445101635ADDAA101000095GA1045+012805999GD12991+0128059GE19AGL   +99999+99999GF104995999999012801999999MA1101635101405REMMET09401/01/16 02:51:02 METAR KPVD 010751Z 26005KT 10SM SCT042 02/M04 A3001 RMK AO2 SLP163 T00221044EQDD01      0ADE726
0206725070147652016010108517+41722-071433FM-15+0019KPVD V0302605N002652200059N0160935N5+00115-00445101605ADDAA101000095GA1005+999999999GD10991+9999999GF100991999999999999999999MA1101595101365MD1890059+9999REMMET09701/01/16 03:51:02 METAR KPVD 010851Z 26005KT 10SM CLR 01/M04 A3000 RMK AO2 SLP160 T00111044 58005
0211725070147652016010109517+41722-071433FM-15+0019KPVD V0302405N00315013115MN0160935N5+00225-00445101625ADDAA101000095GA1085+013115999GD14991+0131159GE19MSL   +99999+99999GF199999999999013111999999MA1101635101405REMMET09401/01/16 04:51:02 METAR KPVD 010951Z 24006KT 10SM OVC043 02/M04 A3001 RMK AO2 SLP162 T00221044
0233725070147652016010110517+41722-071433FM-15+0019KPVD V0302305N00215013415MN0160935N5+00115-00445101595ADDAA101000095GA1075+013415999GD13991+0134159GE19MSL   +99999+99999GF199999999999013411999999MA1101595101365REMMET11601/01/16 05:51:02 METAR KPVD 011051Z 23004KT 10SM BKN044 01/M04 A3000 RMK AO2 SLP159 FIRST AUGMENTED T00111044 (JJF)
0313725070147652016010111517+41722-071433FM-15+0019KPVD V0302605N00365076205MN0160935N5+00175-00445101595ADDAA101000095GA1025+013725999GA2075+076205999GD11991+0137259GD23991+0762059GE19MSL   +99999+99999GF199999999999013721999999KA1060M+00331KA2060N+00111MA1101595101365MD1890019+9999REMMET12501/01/16 06:51:02 METAR KPVD 011151Z 26007KT 10SM FEW045 BKN250 02/M04 A3000 RMK AO2 SLP159 T00171044 10033 20011 58001 (JJF)
0211725070147652016010112004+41733-071433FM-12+001999999V0202601N003619999999N016000199+00171-00441101591ADDGA1999+012501999GE19MSL   +99999+99999GF106991999999012501999999KA1240M+01001KA2240N+00111MA1999999101391MD1810011+9999REMSYN08072507 32666 62607 10017 21044 30139 40159 58001 91151 333 10100 20011 555 90112=
0255725070147652016010112517+41722-071433FM-15+0019KPVD V0302405N00315013725MN0160935N5+00175-00395101645ADDAA101000095GA1075+013725999GA2075+076205999GD13991+0137259GD23991+0762059GE19MSL   +99999+99999GF199999999999013721999999MA1101665101435REMMET10701/01/16 07:51:02 METAR KPVD 011251Z 24006KT 10SM BKN045 BKN250 02/M04 A3002 RMK AO2 SLP164 T00171039 (JJF)
0255725070147652016010113517+41722-071433FM-15+0019KPVD V0302505N00365013725MN0160935N5+00225-00335101655ADDAA101000095GA1075+013725999GA2075+076205999GD13991+0137259GD23991+0762059GE19MSL   +99999+99999GF199999999999013721999999MA1101665101435REMMET10701/01/16 08:51:02 METAR KPVD 011351Z 25007KT 10SM BKN045 BKN250 02/M03 A3002 RMK AO2 SLP165 T00221033 (JJF)
0275725070147652016010114517+41722-071433FM-15+0019KPVD V0302505N00215014635MN0160935N5+00335-00335101635ADDAA101000095GA1075+014635999GA2075+076205999GD13991+0146359GD23991+0762059GE19MSL   +99999+99999GF199999999999014631999999MA1101635101405MD1090049+9999REMMET11301/01/16 09:51:02 METAR KPVD 011451Z 25004KT 10SM BKN048 BKN250 03/M03 A3001 RMK AO2 SLP163 T00331033 50004 (JJF)
0304725070147652016010115517+41722-071433FM-15+0019KPVD V0302705N00415013415MN0160935N5+00445-00335101575ADDAA101000095GA1025+009145999GA2075+013415999GA3075+076205999GD11991+0091459GD23991+0134159GD33991+0762059GE19MSL   +99999+99999GF199999999999009141999999MA1101565101335OC100775REMMET11701/01/16 10:51:02 METAR KPVD 011551Z 27008G15KT 10SM FEW030 BKN044 BKN250 04/M03 A2999 RMK AO2 SLP157 T00441033 (JJF)
0312725070147652016010116517+41722-071433FM-15+0019KPVD V0302705N007252200059N0160935N5+00615-00395101435ADDAA101000095GA1025+009145999GA2045+013415999GA3045+076205999GD11991+0091459GD22991+0134159GD32991+0762059GE19AGL   +99999+99999GF104995999999009141999999MA1101425101195REMMET11401/01/16 11:51:02 METAR KPVD 011651Z 27014KT 10SM FEW030 SCT044 SCT250 06/M04 A2995 RMK AO2 SLP143 T00611039 (JJF)EQDD01      0ADE726
0275725070147652016010117517+41722-071433FM-15+0019KPVD V0302905N00515012805MN0160935N5+00565-00505101365ADDAA101000095GA1085+012805999GD14991+0128059GE19MSL   +99999+99999GF199999999999012801999999KA1060M+00721KA2060N+00171MA1101355101135MD1890269+9999REMMET11801/01/16 12:51:02 METAR KPVD 011751Z 29010KT 10SM OVC042 06/M05 A2993 RMK AO2 SLP136 T00561050 10072 20017 58026 (JJF)
0211725070147652016010118004+41733-071433FM-12+001999999V0202901N005119999999N016000199+00561-00501101361ADDGA1999+012501999GE19MSL   +99999+99999GF108991999999012501999999KA1120M+00721KA2120N+00171MA1999999101161MD1810261+9999REMSYN08072507 32666 82910 10056 21050 30116 40136 58026 91751 333 10072 20017 555 90118=
0217725070147652016010118517+41722-071433FM-15+0019KPVD V0302905N00465012505MN0160935N5+00505-00395101315ADDAA101000095GA1085+012505999GD14991+0125059GE19MSL   +99999+99999GF199999999999012501999999MA1101325101095REMMET10001/01/16 13:51:02 METAR KPVD 011851Z 29009KT 10SM OVC041 05/M04 A2992 RMK AO2 SLP131 T00501039 (JJF)
0217725070147652016010119517+41722-071433FM-15+0019KPVD V0303105N00465013415MN0160935N5+00505-00395101275ADDAA101000095GA1085+013415999GD14991+0134159GE19MSL   +99999+99999GF199999999999013411999999MA1101295101065REMMET10001/01/16 14:51:02 METAR KPVD 011951Z 31009KT 10SM OVC044 05/M04 A2991 RMK AO2 SLP127 T00501039 (CMT)
0237725070147652016010120517+41722-071433FM-15+0019KPVD V0303105N00365014635MN0160935N5+00445-00395101265ADDAA101000095GA1085+014635999GD14991+0146359GE19MSL   +99999+99999GF199999999999014631999999MA1101255101025MD1690109+9999REMMET10601/01/16 15:51:02 METAR KPVD 012051Z 31007KT 10SM OVC048 04/M04 A2990 RMK AO2 SLP126 T00441039 56010 (CMT)
0217725070147652016010121517+41722-071433FM-15+0019KPVD V0302605N00315014945MN0160935N5+00395-00395101265ADDAA101000095GA1085+014945999GD14991+0149459GE19MSL   +99999+99999GF199999999999014941999999MA1101255101025REMMET10001/01/16 16:51:02 METAR KPVD 012151Z 26006KT 10SM OVC049 04/M04 A2990 RMK AO2 SLP126 T00391039 (CMT)
0217725070147652016010122517+41722-071433FM-15+0019KPVD V0302605N00365018295MN0160935N5+00395-00395101265ADDAA101000095GA1085+018295999GD14991+0182959GE19MSL   +99999+99999GF199999999999018291999999MA1101255101025REMMET10001/01/16 17:51:02 METAR KPVD 012251Z 26007KT 10SM OVC060 04/M04 A2990 RMK AO2 SLP126 T00391039 (CMT)
0286725070147652016010123517+41722-071433FM-15+0019KPVD V0302805N00625021345MN0160935N5+00335-00395101335ADDAA101000095GA1085+021345999GD14991+0213459GE19MSL   +99999+99999GF199999999999021341999999KA1060M+00561KA2060N+00331MA1101325101095MD1390079+9999OC100885REMMET12101/01/16 18:51:02 METAR KPVD 012351Z 28012G17KT 10SM OVC070 03/M04 A2992 RMK AO2 SLP133 T00331039 10056 20033 53007 (CMT)
0231725070147652016010200004+41733-071433FM-12+001999999V0202801N006219999999N016000199+00331-00391101331ADDGA1999+022501999GE19MSL   +99999+99999GF108991999999022501999999KA1120M+00721KA2120N+00111MA1999999101121MD1310071+9999OD149900881999REMSYN08672507 32866 82812 10033 21039 30112 40133 53007 92351 333 10072 20011 91017 555 90200=
0249725070147652016010200517+41722-071433FM-15+0019KPVD V0302805N00415022865MN0160935N5+00285-00395101355ADDAA101000095GA1025+015245999GA2085+022865999GD11991+0152459GD24991+0228659GE19MSL   +99999+99999GF199999999999015241999999MA1101355101135REMMET10101/01/16 19:51:01 METAR KPVD 020051Z 28008KT 10SM FEW050 OVC075 03/M04 A2993 RMK AO2 SLP135 T00281039
0249725070147652016010201517+41722-071433FM-15+0019KPVD V0302605N00415022865MN0160935N5+00175-00395101365ADDAA101000095GA1025+014335999GA2075+022865999GD11991+0143359GD23991+0228659GE19MSL   +99999+99999GF199999999999014331999999MA1101355101135REMMET10101/01/16 20:51:01 METAR KPVD 020151Z 26008KT 10SM FEW047 BKN075 02/M04 A2993 RMK AO2 SLP136 T00171039
0269725070147652016010202517+41722-071433FM-15+0019KPVD V0302805N00415024385MN0160935N5+00175-00445101395ADDAA101000095GA1025+014635999GA2075+024385999GD11991+0146359GD23991+0243859GE19MSL   +99999+99999GF199999999999014631999999MA1101395101165MD1390069+9999REMMET10701/01/16 21:51:01 METAR KPVD 020251Z 28008KT 10SM FEW048 BKN080 02/M04 A2994 RMK AO2 SLP139 T00171044 53006
0230725070147652016010203517+41722-071433FM-15+0019KPVD V0302705N003652200059N0160935N5+00065-00505101405ADDAA101000095GA1025+024385999GD11991+0243859GE19AGL   +99999+99999GF102995999999024381999999MA1101425101195REMMET09401/01/16 22:51:01 METAR KPVD 020351Z 27007KT 10SM FEW080 01/M05 A2995 RMK AO2 SLP140 T00061050EQDD01      0ADE726
0281725070147652016010204517+41722-071433FM-15+0019KPVD V0302805N002152200059N0160935N5+00005-00565101435ADDAA101000095GA1025+024385999GD11991+0243859GE19AGL   +99999+99999GF102995999999024381999999KA1240M+00721KA2240N+00001MA1101425101195REMMET11901/01/16 23:51:02 METAR KPVD 020451Z 28004KT 10SM FEW080 00/M06 A2995 RMK AO2 SLP143 LAST AUGMENTED T00001056 400720000EQDD01      0ADE726
0968725070147652016010204596+41722-071433SOD  +0019KPVD V030999999999999999999999999999+99999+99999999999ADDAA124000095AJ100009599999999AN1024000095KA1240M+00725KA2240N-00055KG1024W+0006D4KG2024D-0039D4MF1101254101464MG1101244101254OE11240098326099995OE22240076029099995OE33240036799999995RH1024X067D4RH2024N047D4RH3024M060D4REMSOD73924 HR PRECIPITATION (IN): 0.00 SNOW DEPTH (IN):0     24 HR SNOWFALL (IN):0.0  24 HR MAX TEMP (F): 4524 HR MIN TEMP (F): 31AVERAGE STATION PRESSURE:29.895 MINIMUM SEA LEVEL PRESSURE:29.90 TIME OF OCCURRENCE:1821 PEAK WIND SPEED (MPH): 22 PEAK WIND DIR (DEG):260 PEAK WIND TIME (LST):      FASTEST 2MIN SPEED (MPH): 17FASTEST 2MIN DIR (DEG):290 FASTEST 2MIN TIME (LST):     AVERAGE WIND SPEED (MPH): 8.2 24 HR AVG TEMP (F): 38DEPART FROM NORMAL:  8  HEATING DEGREE DAYS: 27 COOLING DEGREE DAYS:  0 LATEST DAY MAX TEMP (0700-1900 LST):45  LATEST NIGHT MIN TEMP(1900-0800 LST):34 HOURLY INCREMENTAL PRECIPITATION VALUES (IN):.00 0.00 0.00 0.00 0.00 0.00 0.00 0.00 0.00 0.00 0.00 0.00 0.00 0.00 0.00 0.00 0.00 0.00 0.00 0.00 0.00 0.00 0.00 0.00
0193725070147652016010205516+41722-071433FM-15+0019KPVD V0302705N003652200059N0160935N5-00115-00565101425ADDAA101000095GA1005+999999999GD10991+9999999MA1101425101195MD1090039+9999REMMET11001/02/16 00:51:02 METAR KPVD 020551Z 27007KT 10SM CLR M01/M06 A2995 RMK AO2 SLP142 T10111056 10033 21011 50003
0187725070147652016010206517+41722-071433FM-15+0019KPVD V0302705N003152200059N0160935N5-00115-00615101455ADDAA101000095GA1005+999999999GD10991+9999999GF100991999999999999999999MA1101465101235REMMET09201/02/16 01:51:02 METAR KPVD 020651Z 27006KT 10SM CLR M01/M06 A2996 RMK AO2 SLP145 T10111061
0187725070147652016010207517+41722-071433FM-15+0019KPVD V0302405N002652200059N0160935N5-00175-00675101475ADDAA101000095GA1005+999999999GD10991+9999999GF100991999999999999999999MA1101495101265REMMET09201/02/16 02:51:02 METAR KPVD 020751Z 24005KT 10SM CLR M02/M07 A2997 RMK AO2 SLP147 T10171067
0207725070147652016010208517+41722-071433FM-15+0019KPVD V0302805N003152200059N0160935N5-00175-00725101465ADDAA101000095GA1005+999999999GD10991+9999999GF100991999999999999999999MA1101465101235MD1090039+9999REMMET09801/02/16 03:51:02 METAR KPVD 020851Z 28006KT 10SM CLR M02/M07 A2996 RMK AO2 SLP146 T10171072 50003
0231725070147652016010209517+41722-071433FM-15+0019KPVD V0302505N005152200059N0160935N5-00115-00785101445ADDAA101000095GA1025+019815999GD11991+0198159GE19AGL   +99999+99999GF102995999999019811999999MA1101465101235REMMET09501/02/16 04:51:02 METAR KPVD 020951Z 25010KT 10SM FEW065 M01/M08 A2996 RMK AO2 SLP144 T10111078EQDD01      0ADE726
0290725070147652016010210517+41722-071433FM-15+0019KPVD V0302605N003152200059N0160935N5-00225-00725101505ADDAA101000095GA1025+018295999GA2045+060965999GD11991+0182959GD22991+0609659GE19AGL   +99999+99999GF104995999999018291999999MA1101495101265REMMET12301/02/16 05:51:02 METAR KPVD 021051Z 26006KT 10SM FEW060 SCT200 M02/M07 A2997 RMK AO2 SLP150 FIRST AUGMENTED T10221072 (JC)EQDD01      0ADE726
0332725070147652016010211517+41722-071433FM-15+0019KPVD V0302405N002652200059N0160935N5-00285-00675101545ADDAA101000095GA1025+018295999GA2045+076205999GD11991+0182959GD22991+0762059GE19AGL   +99999+99999GF104995999999018291999999KA1060M-00111KA2060N-00281MA1101565101335MD1390099+9999REMMET12501/02/16 06:51:02 METAR KPVD 021151Z 24005KT 10SM FEW060 SCT250 M03/M07 A2999 RMK AO2 SLP154 T10281067 11011 21028 53009 (JC)EQDD01      0ADE726
0192725070147652016010212004+41733-071433FM-12+001999999V0202401N002619999999N016000199-00281-00671101541ADDGA1999+017501999GE19MSL   +99999+99999GF104991999999017501999999KA1240M+00721MA1999999101361MD1310091+9999REMSYN07472507 32766 42405 11028 21067 30136 40154 53009 91151 333 10072 555 90212=
0236725070147652016010212517+41722-071433FM-15+0019KPVD V0302605N003652200059N0160935N5-00175-00675101575ADDAA101000095GA1025+018295999GD11991+0182959GE19AGL   +99999+99999GF102995999999018291999999MA1101565101335REMMET10001/02/16 07:51:02 METAR KPVD 021251Z 26007KT 10SM FEW060 M02/M07 A2999 RMK AO2 SLP157 T10171067 (JC)EQDD01      0ADE726
0246725070147652016010213517+41722-071433FM-15+0019KPVD V0302605N005752200059N0160935N5+00005-00675101615ADDAA101000095GA1025+018295999GD11991+0182959GE19AGL   +99999+99999GF102995999999018291999999MA1101635101405OC100885REMMET10201/02/16 08:51:02 METAR KPVD 021351Z 26011G17KT 10SM FEW060 00/M07 A3001 RMK AO2 SLP161 T00001067 (JC)EQDD01      0ADE726
0222725070147652016010214517+41722-071433FM-15+0019KPVD V0302705N006252200059N0160935N5+00115-00785101665ADDAA101000095GA1005+999999999GD10991+9999999GF100991999999999999999999MA1101665101435MD1390129+9999OC100985REMMET10501/02/16 09:51:02 METAR KPVD 021451Z 27012G19KT 10SM CLR 01/M08 A3002 RMK AO2 SLP166 T00111078 53012 (JC)
0235725070147652016010215517+41722-071433FM-15+0019KPVD V0302805N004652200059N0160935N5+00225-00785101605ADDAA101000095GA1025+018295999GD11991+0182959GE19AGL   +99999+99999GF102995999999018291999999MA1101595101365REMMET09901/02/16 10:51:02 METAR KPVD 021551Z 28009KT 10SM FEW060 02/M08 A3000 RMK AO2 SLP160 T00221078 (JC)EQDD01      0ADE726
0246725070147652016010216517+41722-071433FM-15+0019KPVD V0302705N006752200059N0160935N5+00285-00835101495ADDAA101000095GA1045+013725999GD12991+0137259GE19AGL   +99999+99999GF104995999999013721999999MA1101495101265OC101085REMMET10201/02/16 11:51:02 METAR KPVD 021651Z 27013G21KT 10SM SCT045 03/M08 A2997 RMK AO2 SLP149 T00281083 (JC)EQDD01      0ADE726
0293725070147652016010217517+41722-071433FM-15+0019KPVD V0303005N005752200059N0160935N5+00395-00835101395ADDAA101000095GA1025+013725999GD11991+0137259GE19AGL   +99999+99999GF102995999999013721999999KA1060M+00391KA2060N-00281MA1101395101165MD1890279+9999REMMET11701/02/16 12:51:02 METAR KPVD 021751Z 30011KT 10SM FEW045 04/M08 A2994 RMK AO2 SLP139 T00391083 10039 21028 58027 (JC)EQDD01      0ADE726
0211725070147652016010218004+41733-071433FM-12+001999999V0203001N005719999999N016000199+00391-00831101391ADDGA1999+012501999GE19MSL   +99999+99999GF102991999999012501999999KA1120M+00391KA2120N-00281MA1999999101191MD1810271+9999REMSYN08072507 32666 23011 10039 21083 30119 40139 58027 91751 333 10039 21028 555 90218=
0284725070147652016010218517+41722-071433FM-15+0019KPVD V0303105N005752200059N0160935N5+00395-00835101375ADDAA101000095GA1025+013725999GA2045+076205999GD11991+0137259GD22991+0762059GE19AGL   +99999+99999GF104995999999013721999999MA1101395101165OC100985REMMET10901/02/16 13:51:02 METAR KPVD 021851Z 31011G19KT 10SM FEW045 SCT250 04/M08 A2994 RMK AO2 SLP137 T00391083 (JC)EQDD01      0ADE726
0285725070147652016010219517+41722-071433FM-15+0019KPVD V0302805N004652200059N0160935N5+00335-00835101365ADDAA101000095GA1025+015245999GA2025+076205999GD11991+0152459GD21991+0762059GE19AGL   +99999+99999GF102995999999015241999999MA1101355101135OC100885REMMET11001/02/16 14:51:02 METAR KPVD 021951Z 28009G17KT 10SM FEW050 FEW250 03/M08 A2993 RMK AO2 SLP136 T00331083 (AMB)EQDD01      0ADE726
0332725070147652016010220517+41722-071433FM-15+0019KPVD V0302905N004152200059N0160935N5+00285-00835101375ADDAA101000095GA1025+015245999GA2025+060965999GA3025+091445999GD11991+0152459GD21991+0609659GD31991+0914459GE19AGL   +99999+99999GF102995999999015241999999MA1101395101165MD1590029+9999REMMET12001/02/16 15:51:02 METAR KPVD 022051Z 29008KT 10SM FEW050 FEW200 FEW300 03/M08 A2994 RMK AO2 SLP137 T00281083 55002 (AMB)EQDD01      0ADE726
0274725070147652016010221517+41722-071433FM-15+0019KPVD V0302605N003652200059N0160935N5+00175-00835101395ADDAA101000095GA1025+015245999GA2025+054865999GD11991+0152459GD21991+0548659GE19AGL   +99999+99999GF102995999999015241999999MA1101395101165REMMET10701/02/16 16:51:02 METAR KPVD 022151Z 26007KT 10SM FEW050 FEW180 02/M08 A2994 RMK AO2 SLP139 T00171083 (AMB)EQDD01      0ADE726
0192725070147652016010222517+41722-071433FM-15+0019KPVD V0302705N002152200059N0160935N5+00065-00835101455ADDAA101000095GA1005+999999999GD10991+9999999GF100991999999999999999999MA1101465101235REMMET09701/02/16 17:51:02 METAR KPVD 022251Z 27004KT 10SM CLR 01/M08 A2996 RMK AO2 SLP145 T00061083 (AMB)
0250725070147652016010223517+41722-071433FM-15+0019KPVD V0302805N001552200059N0160935N5+00005-00785101475ADDAA101000095GA1005+999999999GD10991+9999999GF100991999999999999999999KA1060M+00391KA2060N-00061MA1101465101235MD1190099+9999REMMET11501/02/16 18:51:02 METAR KPVD 022351Z 28003KT 10SM CLR 00/M08 A2996 RMK AO2 SLP147 T00001078 10039 21006 51009 (AMB)
0147725070147652016010300004+41733-071433FM-12+001999999V0202801N001519999999N016000199+00001-00781101471ADDKA1120M+00391KA2120N-00281MA1999999101261MD1110091+9999REMSYN08072507 32966 02803 10000 21078 30126 40147 51009 92351 333 10039 21028 555 90300=
0187725070147652016010300517+41722-071433FM-15+0019KPVD V0302305N002152200059N0160935N5-00115-00725101525ADDAA101000095GA1005+999999999GD10991+9999999GF100991999999999999999999MA1101525101305REMMET09201/02/16 19:51:01 METAR KPVD 030051Z 23004KT 10SM CLR M01/M07 A2998 RMK AO2 SLP152 T10111072
0231725070147652016010301517+41722-071433FM-15+0019KPVD V0302405N003152200059N0160935N5-00115-00725101515ADDAA101000095GA1025+012195999GD11991+0121959GE19AGL   +99999+99999GF102995999999012191999999MA1101525101305REMMET09501/02/16 20:51:01 METAR KPVD 030151Z 24006KT 10SM FEW040 M01/M07 A2998 RMK AO2 SLP151 T10111072EQDD01      0ADE726
0251725070147652016010302517+41722-071433FM-15+0019KPVD V0302605N001552200059N0160935N5-00115-00725101435ADDAA101000095GA1045+011895999GD12991+0118959GE19AGL   +99999+99999GF104995999999011891999999MA1101425101195MD1890049+9999REMMET10101/02/16 21:51:01 METAR KPVD 030251Z 26003KT 10SM SCT039 M01/M07 A2995 RMK AO2 SLP143 T10111072 58004EQDD01      0ADE726
0212725070147652016010303517+41722-071433FM-15+0019KPVD V0302105N00315012805MN0160935N5-00115-00615101375ADDAA101000095GA1075+012805999GD13991+0128059GE19MSL   +99999+99999GF199999999999012801999999MA1101395101165REMMET09501/02/16 22:51:02 METAR KPVD 030351Z 21006KT 10SM BKN042 M01/M06 A2994 RMK AO2 SLP137 T10111061
0326725070147652016010304517+41722-071433FM-15+0019KPVD V0302005N002652200059N0160935N5-00175-00675101275ADDAA101000095GA1025+011285999GA2025+091445999GD11991+0112859GD21991+0914459GE19AGL   +99999+99999GF102995999999011281999999KA1240M+00391KA2240N-00281MA1101295101065REMMET13301/02/16 23:51:02 METAR KPVD 030451Z 20005KT 10SM FEW037 FEW300 M02/M07 A2991 RMK AO2 SLP127 LAST AUGMENTED T10171067 400391028 (AMB)EQDD01      0ADE726
0968725070147652016010304596+41722-071433SOD  +0019KPVD V030999999999999999999999999999+99999+99999999999ADDAA124000095AJ100009599999999AN1024000095KA1240M+00395KA2240N-00275KG1024W-0022D4KG2024D-0072D4MF1101224101464MG1101224101254OE11240107328099995OE22240089426099995OE33240037199999995RH1024X075D4RH2024N041D4RH3024M058D4REMSOD73924 HR PRECIPITATION (IN): 0.00 SNOW DEPTH (IN):0     24 HR SNOWFALL (IN):0.0  24 HR MAX TEMP (F): 3924 HR MIN TEMP (F): 27AVERAGE STATION PRESSURE:29.890 MINIMUM SEA LEVEL PRESSURE:29.90 TIME OF OCCURRENCE:2359 PEAK WIND SPEED (MPH): 24 PEAK WIND DIR (DEG):280 PEAK WIND TIME (LST):      FASTEST 2MIN SPEED (MPH): 20FASTEST 2MIN DIR (DEG):260 FASTEST 2MIN TIME (LST):     AVERAGE WIND SPEED (MPH): 8.3 24 HR AVG TEMP (F): 33DEPART FROM NORMAL:  3  HEATING DEGREE DAYS: 32 COOLING DEGREE DAYS:  0 LATEST DAY MAX TEMP (0700-1900 LST):39  LATEST NIGHT MIN TEMP(1900-0800 LST):27 HOURLY INCREMENTAL PRECIPITATION VALUES (IN):.00 0.00 0.00 0.00 0.00 0.00 0.00 0.00 0.00 0.00 0.00 0.00 0.00 0.00 0.00 0.00 0.00 0.00 0.00 0.00 0.00 0.00 0.00 0.00
0245725070147652016010305517+41722-071433FM-15+0019KPVD V0302005N003152200059N0160935N5-00285-00675101265ADDAA101000095GA1005+999999999GD10991+9999999GF100991999999999999999999KA1060M+00061KA2060N-00281MA1101255101025MD1690179+9999REMMET11001/03/16 00:51:02 METAR KPVD 030551Z 20006KT 10SM CLR M03/M07 A2990 RMK AO2 SLP126 T10281067 10006 21028 56017
0147725070147652016010306004+41733-071433FM-12+001999999V0202001N003119999999N016000199-00281-00671101261ADDKA1240M+00061KA2240N-00281MA1999999101061MD1610171+9999REMSYN08072507 35966 02006 11028 21067 30106 40126 56017 90551 333 10006 21028 555 90306=
0187725070147652016010306517+41722-071433FM-15+0019KPVD V0302505N003152200059N0160935N5-00115-00725101265ADDAA101000095GA1005+999999999GD10991+9999999GF100991999999999999999999MA1101255101025REMMET09201/03/16 01:51:02 METAR KPVD 030651Z 25006KT 10SM CLR M01/M07 A2990 RMK AO2 SLP126 T10111072
0212725070147652016010307517+41722-071433FM-15+0019KPVD V0302005N00265010365MN0160935N5-00225-00675101185ADDAA101000095GA1075+010365999GD13991+0103659GE19MSL   +99999+99999GF199999999999010361999999MA1101195100965REMMET09501/03/16 02:51:02 METAR KPVD 030751Z 20005KT 10SM BKN034 M02/M07 A2988 RMK AO2 SLP118 T10221067
0207725070147652016010308517+41722-071433FM-15+0019KPVD V0302205N002652200059N0160935N5-00115-00675101085ADDAA101000095GA1005+999999999GD10991+9999999GF100991999999999999999999MA1101085100865MD1890179+9999REMMET09801/03/16 03:51:02 METAR KPVD 030851Z 22005KT 10SM CLR M01/M07 A2985 RMK AO2 SLP108 T10111067 58017
0187725070147652016010309517+41722-071433FM-15+0019KPVD V0302005N003152200059N0160935N5-00115-00675101015ADDAA101000095GA1005+999999999GD10991+9999999GF100991999999999999999999MA1101025100795REMMET09201/03/16 04:51:02 METAR KPVD 030951Z 20006KT 10SM CLR M01/M07 A2983 RMK AO2 SLP101 T10111067
0252725070147652016010310517+41722-071433FM-15+0019KPVD V0302305N003652200059N0160935N5+00005-00615100985ADDAA101000095GA1025+045725999GD11991+0457259GE19AGL   +99999+99999GF102995999999045721999999MA1100985100755REMMET11601/03/16 05:51:02 METAR KPVD 031051Z 23007KT 10SM FEW150 00/M06 A2982 RMK AO2 SLP098 FIRST AUGMENTED T00001061 (JAY)EQDD01      0ADE726
0295725070147652016010311517+41722-071433FM-15+0019KPVD V0301905N003652200059N0160935N5-00065-00565100945ADDAA101000095GA1025+015245999GD11991+0152459GE19AGL   +99999+99999GF102995999999015241999999KA1060M+00061KA2060N-00281MA1100955100725MD1690149+9999REMMET11901/03/16 06:51:02 METAR KPVD 031151Z 19007KT 10SM FEW050 M01/M06 A2981 RMK AO2 SLP094 T10061056 10006 21028 56014 (JAY)EQDD01      0ADE726
0211725070147652016010312004+41733-071433FM-12+001999999V0201901N003619999999N016000199-00061-00561100941ADDGA1999+017501999GE19MSL   +99999+99999GF102991999999017501999999KA1240M+00391KA2240N-00281MA1999999100751MD1610141+9999REMSYN08072507 32766 21907 11006 21056 30075 40094 56014 91151 333 10039 21028 555 90312=
0236725070147652016010312517+41722-071433FM-15+0019KPVD V0301805N002652200059N0160935N5+00005-00445100965ADDAA101000095GA1025+012195999GD11991+0121959GE19AGL   +99999+99999GF102995999999012191999999MA1100955100725REMMET10001/03/16 07:51:02 METAR KPVD 031251Z 18005KT 10SM FEW040 00/M04 A2981 RMK AO2 SLP096 T00001044 (JAY)EQDD01      0ADE726
0192725070147652016010313517+41722-071433FM-15+0019KPVD V0309999C000052200059N0160935N5+00285-00335100995ADDAA101000095GA1005+999999999GD10991+9999999GF100991999999999999999999MA1100985100755REMMET09701/03/16 08:51:02 METAR KPVD 031351Z 00000KT 10SM CLR 03/M03 A2982 RMK AO2 SLP099 T00281033 (JAY)
0223725070147652016010314517+41722-071433FM-15+0019KPVD V0302605N005752200059N0160935N5+00565-00395100965ADDAA101000095GA1005+999999999GD10991+9999999GF100991999999999999999999MA1100955100725MD1090029+9999OC101035REMMET10601/03/16 09:51:02 METAR KPVD 031451Z 26011G20KT 10SM CLR 06/M04 A2981 RMK AO2 SLP096 T00561039 50002 (JAY)
0279725070147652016010315517+41722-071433FM-15+0019KPVD V0302705N006752200059N0160935N5+00675-00445100865ADDAA101000095GA1025+012195999GD11991+0121959GE19AGL   +99999+99999GF102995999999012191999999MA1100855100625OC101085OD149901331240REMMET12101/03/16 10:51:02 METAR KPVD 031551Z 27013G21KT 10SM FEW040 07/M04 A2978 RMK AO2 PK WND 24026/1508 SLP086 T00671044 (JAY)EQDD01      0ADE726
0203725070147652016010316517+41722-071433FM-15+0019KPVD V0302605N006752200059N0160935N5+00725-00505100765ADDAA101000095GA1005+999999999GD10991+9999999GF100991999999999999999999MA1100785100555OC101035REMMET10001/03/16 11:51:02 METAR KPVD 031651Z 26013G20KT 10SM CLR 07/M05 A2976 RMK AO2 SLP076 T00721050 (JAY)
0305725070147652016010317517+41722-071433FM-15+0019KPVD V0302805N006752200059N0160935N5+00785-00565100695ADDAA101000095GA1025+013725999GD11991+0137259GE19AGL   +99999+99999GF102995999999013721999999KA1060M+00781KA2060N-00111MA1100715100485MD1690269+9999OC100935REMMET12101/03/16 12:51:02 METAR KPVD 031751Z 28013G18KT 10SM FEW045 08/M06 A2974 RMK AO2 SLP069 T00781056 10078 21011 56026 (JAY)EQDD01      0ADE726
0231725070147652016010318004+41733-071433FM-12+001999999V0202801N006719999999N016000199+00781-00561100691ADDGA1999+012501999GE19MSL   +99999+99999GF102991999999012501999999KA1120M+00781KA2120N-00111MA1999999100511MD1610261+9999OD149900931999REMSYN08672507 32666 22813 10078 21056 30051 40069 56026 91751 333 10078 21011 91018 555 90318=
0236725070147652016010318517+41722-071433FM-15+0019KPVD V0303005N004652200059N0160935N5+00785-00565100695ADDAA101000095GA1025+013725999GD11991+0137259GE19AGL   +99999+99999GF102995999999013721999999MA1100685100455REMMET10001/03/16 13:51:02 METAR KPVD 031851Z 30009KT 10SM FEW045 08/M06 A2973 RMK AO2 SLP069 T00781056 (JAY)EQDD01      0ADE726
0236725070147652016010319517+41722-071433FM-15+0019KPVD V0302805N006252200059N0160935N5+00615-00565100755ADDAA101000095GA1025+015245999GD11991+0152459GE19AGL   +99999+99999GF102995999999015241999999MA1100755100525REMMET10001/03/16 14:51:02 METAR KPVD 031951Z 28012KT 10SM FEW050 06/M06 A2975 RMK AO2 SLP075 T00611056 (AMB)EQDD01      0ADE726
0294725070147652016010320517+41722-071433FM-15+0019KPVD V0302605N003152200059N0160935N5+00505-00565100785ADDAA101000095GA1025+013725999GA2025+076205999GD11991+0137259GD21991+0762059GE19AGL   +99999+99999GF102995999999013721999999MA1100785100555MD1390089+9999REMMET11301/03/16 15:51:02 METAR KPVD 032051Z 26006KT 10SM FEW045 FEW250 05/M06 A2976 RMK AO2 SLP078 T00501056 53008 (AMB)EQDD01      0ADE726
0274725070147652016010321517+41722-071433FM-15+0019KPVD V0302705N003652200059N0160935N5+00395-00565100815ADDAA101000095GA1025+011895999GA2025+076205999GD11991+0118959GD21991+0762059GE19AGL   +99999+99999GF102995999999011891999999MA1100815100595REMMET10701/03/16 16:51:02 METAR KPVD 032151Z 27007KT 10SM FEW039 FEW250 04/M06 A2977 RMK AO2 SLP081 T00391056 (AMB)EQDD01      0ADE726
0274725070147652016010322517+41722-071433FM-15+0019KPVD V0302605N001552200059N0160935N5+00285-00565100915ADDAA101000095GA1025+011285999GA2025+076205999GD11991+0112859GD21991+0762059GE19AGL   +99999+99999GF102995999999011281999999MA1100915100695REMMET10701/03/16 17:51:02 METAR KPVD 032251Z 26003KT 10SM FEW037 FEW250 03/M06 A2980 RMK AO2 SLP091 T00281056 (AMB)EQDD01      0ADE726
0250725070147652016010323517+41722-071433FM-15+0019KPVD V0302705N003152200059N0160935N5+00225-00565100975ADDAA101000095GA1005+999999999GD10991+9999999GF100991999999999999999999KA1060M+00781KA2060N+00111MA1100985100755MD1390199+9999REMMET11501/03/16 18:51:02 METAR KPVD 032351Z 27006KT 10SM CLR 02/M06 A2982 RMK AO2 SLP097 T00221056 10078 20011 53019 (AMB)
0147725070147652016010400004+41733-071433FM-12+001999999V0202701N003119999999N016000199+00221-00561100971ADDKA1120M+00781KA2120N-00271MA1999999100791MD1310191+9999REMSYN08072507 32966 02706 10022 21056 30079 40097 53019 92351 333 10078 21027 555 90400=
0186725070147652016010400517+41722-071433FM-15+0019KPVD V0302505N002152200059N0160935N5+00175-00505101035ADDAA101000095GA1005+999999999GD10991+9999999GF100991999999999999999999MA1101025100795REMMET09101/03/16 19:51:01 METAR KPVD 040051Z 25004KT 10SM CLR 02/M05 A2983 RMK AO2 SLP103 T00171050
0186725070147652016010401517+41722-071433FM-15+0019KPVD V0302605N003152200059N0160935N5+00115-00505101005ADDAA101000095GA1005+999999999GD10991+9999999GF100991999999999999999999MA1101025100795REMMET09101/03/16 20:51:01 METAR KPVD 040151Z 26006KT 10SM CLR 01/M05 A2983 RMK AO2 SLP100 T00111050
0207725070147652016010402517+41722-071433FM-15+0019KPVD V0301905N002652200059N0160935N5-00115-00565101025ADDAA101000095GA1005+999999999GD10991+9999999GF100991999999999999999999MA1101025100795MD1190069+9999REMMET09801/03/16 21:51:02 METAR KPVD 040251Z 19005KT 10SM CLR M01/M06 A2983 RMK AO2 SLP102 T10111056 51006
0187725070147652016010403517+41722-071433FM-15+0019KPVD V0302305N003152200059N0160935N5-00175-00565101005ADDAA101000095GA1005+999999999GD10991+9999999GF100991999999999999999999MA1101025100795REMMET09201/03/16 22:51:02 METAR KPVD 040351Z 23006KT 10SM CLR M02/M06 A2983 RMK AO2 SLP100 T10171056
0238725070147652016010404517+41722-071433FM-15+0019KPVD V0302005N002652200059N0160935N5-00225-00565100995ADDAA101000095GA1005+999999999GD10991+9999999GF100991999999999999999999KA1240M+00781KA2240N-00281MA1100985100755REMMET11701/03/16 23:51:02 METAR KPVD 040451Z 20005KT 10SM CLR M02/M06 A2982 RMK AO2 SLP099 LAST AUGMENTED T10221056 400781028
0968725070147652016010404596+41722-071433SOD  +0019KPVD V030999999999999999999999999999+99999+99999999999ADDAA124000095AJ100009599999999AN1024000095KA1240M+00785KA2240N-00275KG1024W-0006D4KG2024D-0056D4MF1100754100954MG1100734100684OE11240134124099995OE22240107325099995OE33240035899999995RH1024X078D4RH2024N038D4RH3024M059D4REMSOD73924 HR PRECIPITATION (IN): 0.00 SNOW DEPTH (IN):0     24 HR SNOWFALL (IN):0.0  24 HR MAX TEMP (F): 4624 HR MIN TEMP (F): 27AVERAGE STATION PRESSURE:29.745 MINIMUM SEA LEVEL PRESSURE:29.73 TIME OF OCCURRENCE:1409 PEAK WIND SPEED (MPH): 30 PEAK WIND DIR (DEG):240 PEAK WIND TIME (LST):      FASTEST 2MIN SPEED (MPH): 24FASTEST 2MIN DIR (DEG):250 FASTEST 2MIN TIME (LST):     AVERAGE WIND SPEED (MPH): 8.0 24 HR AVG TEMP (F): 37DEPART FROM NORMAL:  7  HEATING DEGREE DAYS: 28 COOLING DEGREE DAYS:  0 LATEST DAY MAX TEMP (0700-1900 LST):46  LATEST NIGHT MIN TEMP(1900-0800 LST):27 HOURLY INCREMENTAL PRECIPITATION VALUES (IN):.00 0.00 0.00 0.00 0.00 0.00 0.00 0.00 0.00 0.00 0.00 0.00 0.00 0.00 0.00 0.00 0.00 0.00 0.00 0.00 0.00 0.00 0.00 0.00
0245725070147652016010405517+41722-071433FM-15+0019KPVD V0302305N002152200059N0160935N5-00175-00505101005ADDAA101000095GA1005+999999999GD10991+9999999GF100991999999999999999999KA1060M+00221KA2060N-00281MA1101025100795MD1590029+9999REMMET11001/04/16 00:51:02 METAR KPVD 040551Z 23004KT 10SM CLR M02/M05 A2983 RMK AO2 SLP100 T10171050 10022 21028 55002
0147725070147652016010406004+41733-071433FM-12+001999999V0202301N002119999999N016000199-00171-00501101001ADDKA1240M+00221KA2240N-00281MA1999999100821MD1510021+9999REMSYN08072507 32966 02304 11017 21050 30082 40100 55002 90551 333 10022 21028 555 90406=
0187725070147652016010406517+41722-071433FM-15+0019KPVD V0309999C000052200059N0160935N5-00335-00565101025ADDAA101000095GA1005+999999999GD10991+9999999GF100991999999999999999999MA1101025100795REMMET09201/04/16 01:51:02 METAR KPVD 040651Z 00000KT 10SM CLR M03/M06 A2983 RMK AO2 SLP102 T10331056
0187725070147652016010407517+41722-071433FM-15+0019KPVD V0302605N001552200059N0160935N5-00285-00565101085ADDAA101000095GA1005+999999999GD10991+9999999GF100991999999999999999999MA1101085100865REMMET09201/04/16 02:51:02 METAR KPVD 040751Z 26003KT 10SM CLR M03/M06 A2985 RMK AO2 SLP108 T10281056
0207725070147652016010408517+41722-071433FM-15+0019KPVD V0302905N002652200059N0160935N5-00285-00565101065ADDAA101000095GA1005+999999999GD10991+9999999GF100991999999999999999999MA1101055100825MD1090069+9999REMMET09801/04/16 03:51:02 METAR KPVD 040851Z 29005KT 10SM CLR M03/M06 A2984 RMK AO2 SLP106 T10281056 50006
0231725070147652016010409517+41722-071433FM-15+0019KPVD V0303005N002652200059N0160935N5-00225-00505101085ADDAA101000095GA1025+011585999GD11991+0115859GE19AGL   +99999+99999GF102995999999011581999999MA1101085100865REMMET09501/04/16 04:51:02 METAR KPVD 040951Z 30005KT 10SM FEW038 M02/M05 A2985 RMK AO2 SLP108 T10221050EQDD01      0ADE726
0289725070147652016010410517+41722-071433FM-15+0019KPVD V0303105N003152200059N0160935N5+00005-00445101155ADDAA101000095GA1025+013115999GA2045+024385999GD11991+0131159GD22991+0243859GE19AGL   +99999+99999GF104995999999013111999999MA1101155100925REMMET12201/04/16 05:51:02 METAR KPVD 041051Z 31006KT 10SM FEW043 SCT080 00/M04 A2987 RMK AO2 SLP115 FIRST AUGMENTED T00001044 (EH)EQDD01      0ADE726
0274725070147652016010411267+41722-071433FM-16+0019KPVD V0303405N00265007625MN0160935N5+00005-00395999999ADDGA1075+007625999GA2075+011285999GA3075+024385999GD13991+0076259GD23991+0112859GD33991+0243859GE19MSL   +99999+99999GF199999999999007621999999MA1101255101025REMMET10601/04/16 06:26:02 SPECI KPVD 041126Z 34005KT 10SM BKN025 BKN037 BKN080 00/M04 A2990 RMK AO2 T00001039 (EH)
0350725070147652016010411517+41722-071433FM-15+0019KPVD V0303305N00365008535MN0160935N5+00005-00395101305ADDAA101000095GA1075+008535999GA2075+010675999GA3075+024385999GD13991+0085359GD23991+0106759GD33991+0243859GE19MSL   +99999+99999GF199999999999008531999999KA1060M+00001KA2060N-00501MA1101325101095MD1390249+9999REMMET13101/04/16 06:51:02 METAR KPVD 041151Z 33007KT 10SM BKN028 BKN035 BKN080 00/M04 A2992 RMK AO2 SLP130 T00001039 10000 21050 53024 (EH)
0211725070147652016010412004+41733-071433FM-12+001999999V0203301N003619999999N016000199+00001-00391101301ADDGA1999+008001999GE19MSL   +99999+99999GF106991999999008001999999KA1240M+00781KA2240N-00501MA1999999101121MD1310241+9999REMSYN08072507 32566 63307 10000 21039 30112 40130 53024 91151 333 10078 21050 555 90412=
0236725070147652016010412007+41722-071433FM-16+0019KPVD V0303405N00415009145MN0160935N5+00005-00395999999ADDGA1075+009145999GA2075+024385999GD13991+0091459GD23991+0243859GE19MSL   +99999+99999GF199999999999009141999999MA1101325101095REMMET09901/04/16 07:00:02 SPECI KPVD 041200Z 34008KT 10SM BKN030 BKN080 00/M04 A2992 RMK AO2 T00001039 (EH)
0269725070147652016010412517+41722-071433FM-15+0019KPVD V0303605N00415009755MN0080475N5-00065-00505101365ADDAA101000025AU110030015AU200001015AW1105AW2715GA1085+009755999GD14991+0097559GE19MSL   +99999+99999GF199999999999009751999999MA1101355101135REMMET11801/04/16 07:51:02 METAR KPVD 041251Z 36008KT 5SM -SN BR OVC032 M01/M05 A2993 RMK AO2 SNB33 SLP136 P0000 T10061050 (EH)
0256725070147652016010413307+41722-071433FM-16+0019KPVD V0303605N00625009145MN0032195N5-00115-00445999999ADDAA101000021AU110030015AU200001015AW1105AW2715GA1085+009145999GD14991+0091459GE19MSL   +99999+99999GF199999999999009141999999MA1101425101195REMMET10501/04/16 08:30:02 SPECI KPVD 041330Z 36012KT 2SM -SN BR OVC030 M01/M04 A2995 RMK AO2 P0000 T10111044 (EH)
0270725070147652016010413377+41722-071433FM-16+0019KPVD V0300105N00675009145MN0024145N5-00175-00445999999ADDAA101000021AU110030015AU200001015AW1105AW2715GA1085+009145999GD14991+0091459GE19MSL   +99999+99999GF199999999999009141999999MA1101425101195REMMET11901/04/16 08:37:02 SPECI KPVD 041337Z 01013KT 1 1/2SM -SN BR OVC030 M02/M04 A2995 RMK AO2 TWR VIS 2 P0000 T10171044 (EH)
0305725070147652016010413517+41722-071433FM-15+0019KPVD V0300105N00675010065MN0024145N5-00175-00505101455ADDAA101000025AU110030015AU200001015AW1105AW2715ED105U18299GA1085+010065999GD14991+0100659GE19MSL   +99999+99999GF199999999999010061999999MA1101465101235REMMET14301/04/16 08:51:02 METAR KPVD 041351Z 01013KT 1 1/2SM R05/6000VP6000FT -SN BR OVC033 M02/M05 A2996 RMK AO2 TWR VIS 2 SLP145 P0000 T10171050 (EH)
0266725070147652016010414167+41722-071433FM-16+0019KPVD V0303605N00675011285MN0032195N5-00175-00505999999ADDAA101000021AU110030015AU200001015AW1105AW2715GA1085+011285999GD14991+0112859GE19MSL   +99999+99999GF199999999999011281999999MA1101495101265REMMET11501/04/16 09:16:02 SPECI KPVD 041416Z 36013KT 2SM -SN BR OVC037 M02/M05 A2997 RMK AO2 SFC VIS 4 P0000 T10171050 (EH)
0266725070147652016010414247+41722-071433FM-16+0019KPVD V0300105N00725011285MN0048285N5-00175-00505999999ADDAA101000021AU110030015AU200001015AW1105AW2715GA1085+011285999GD14991+0112859GE19MSL   +99999+99999GF199999999999011281999999MA1101495101265REMMET11501/04/16 09:24:02 SPECI KPVD 041424Z 01014KT 3SM -SN BR OVC037 M02/M05 A2997 RMK AO2 SFC VIS 4 P0000 T10171050 (EH)
0206725070147652016010414496+41722-071433FM-16+0019KPVD V0300105N00625012195MN0040235N5-00205-00605999999ADDAU110030015AU200001015AW1105AW2715GA1085+012195999GD14991+0121959MA1101525101305REMMET11401/04/16 09:49:02 SPECI KPVD 041449Z 01012KT 2 1/2SM -SN BR OVC040 M02/M06 A2998 RMK AO2 TWR VIS 3 P0000 FIBI (EH)
0361725070147652016010414517+41722-071433FM-15+0019KPVD V0300205N00675012195MN0040235N5-00175-00505101515ADDAA101000025AA203000021AU110030015AU200001015AW1105AW2715GA1025+005495999GA2085+012195999GD11991+0054959GD24991+0121959GE19MSL   +99999+99999GF199999999999005491999999MA1101525101305MD1390219+9999REMMET13501/04/16 09:51:02 METAR KPVD 041451Z 02013KT 2 1/2SM -SN BR FEW018 OVC040 M02/M05 A2998 RMK AO2 SLP151 P0000 60000 T10171050 53021 (EH)EQDQ01  00008PRCP03
0346725070147652016010415237+41722-071433FM-16+0019KPVD V0300105N00575007015MN0040235N5-00175-00505999999ADDAA101000021AU110030015AU200001015AW1105AW2715GA1025+005185999GA2075+007015999GA3085+013415999GD11991+0051859GD23991+0070159GD34991+0134159GE19MSL   +99999+99999GF199999999999005181999999MA1101525101305REMMET13301/04/16 10:23:02 SPECI KPVD 041523Z 01011KT 2 1/2SM -SN BR FEW017 BKN023 OVC044 M02/M05 A2998 RMK AO2 SFC VIS 5 P0000 T10171050 (EH)
0332725070147652016010415337+41722-071433FM-16+0019KPVD V0300105N00625011895MN0096565N5-00175-00565999999ADDAA101000021AU110030015AU200001015AW1105AW2715GA1045+007015999GA2075+011895999GA3085+014635999GD12991+0070159GD23991+0118959GD34991+0146359GE19MSL   +99999+99999GF199999999999007011999999MA1101565101335REMMET11901/04/16 10:33:02 SPECI KPVD 041533Z 01012KT 6SM -SN BR SCT023 BKN039 OVC048 M02/M06 A2999 RMK AO2 P0000 T10171056 (EH)
0339725070147652016010415517+41722-071433FM-15+0019KPVD V0303605N00515012505MN0080475N5-00175-00675101535ADDAA101000025AU110030015AU200001015AW1105AW2715GA1025+007015999GA2075+012505999GA3085+015245999GD11991+0070159GD23991+0125059GD34991+0152459GE19MSL   +99999+99999GF199999999999007011999999MA1101525101305REMMET12601/04/16 10:51:02 METAR KPVD 041551Z 36010KT 5SM -SN BR FEW023 BKN041 OVC050 M02/M07 A2998 RMK AO2 SLP153 P0000 T10171067 (EH)
0305725070147652016010416517+41722-071433FM-15+0019KPVD V0300105N00825016765MN0160935N5-00175-00945101515ADDAA101000025GA1025+012195999GA2075+016765999GA3075+024385999GD11991+0121959GD23991+0167659GD33991+0243859GE19MSL   +99999+99999GF199999999999012191999999MA1101525101305REMMET12601/04/16 11:51:02 METAR KPVD 041651Z 01016KT 10SM FEW040 BKN055 BKN080 M02/M09 A2998 RMK AO2 SNE08 SLP151 P0000 T10171094 (EH)
0368725070147652016010417517+41722-071433FM-15+0019KPVD V0303605N00675014945MN0160935N5-00175-01065101495ADDAA101000095AA206000021GA1025+012195999GA2075+014945999GA3075+016765999GD11991+0121959GD23991+0149459GD33991+0167659GE19MSL   +99999+99999GF199999999999012191999999KA1060M+00001KA2060N-00221MA1101495101265MD1890029+9999REMMET13801/04/16 12:51:02 METAR KPVD 041751Z 36013KT 10SM FEW040 BKN049 BKN055 M02/M11 A2997 RMK AO2 SLP149 60000 T10171106 10000 21022 58002 (EH)
0228725070147652016010418004+41733-071433FM-12+001999999V0203601N006719999999N016000199-00171-01061101491ADDAA106000021GA1999+012501999GE19MSL   +99999+99999GF106991999999012501999999KA1120M+00001KA2120N-00221MA1999999101291MD1810021+9999REMSYN08672507 12666 63613 11017 21106 30129 40149 58002 69901 91751 333 10000 21022 555 90418=
0326725070147652016010418517+41722-071433FM-15+0019KPVD V0303605N00625013725MN0144845N5-00285-01005101555ADDAA101000025AU110030015AW1715GA1025+010675999GA2075+013725999GA3085+024385999GD11991+0106759GD23991+0137259GD34991+0243859GE19MSL   +99999+99999GF199999999999010671999999MA1101565101335REMMET13001/04/16 13:51:02 METAR KPVD 041851Z 36012KT 9SM -SN FEW035 BKN045 OVC080 M03/M10 A2999 RMK AO2 SNB40 SLP155 P0000 T10281100 (CMT)
0313725070147652016010419067+41722-071433FM-16+0019KPVD V0300105N00775014335MN0032195N5-00335-00895999999ADDAA101000021AU110030015AW1715GA1025+008845999GA2045+010675999GA3085+014335999GD11991+0088459GD22991+0106759GD34991+0143359GE19MSL   +99999+99999GF199999999999008841999999MA1101565101335REMMET11701/04/16 14:06:02 SPECI KPVD 041906Z 01015KT 2SM -SN FEW029 SCT035 OVC047 M03/M09 A2999 RMK AO2 P0000 T10331089 (CMT)
0346725070147652016010419217+41722-071433FM-16+0019KPVD V0300105N00675009145MN0016095N5-00395-00835999999ADDAA101000021AU110030015AW1715ED105U18299GA1075+009145999GA2075+012505999GA3085+014945999GD13991+0091459GD23991+0125059GD34991+0149459GE19MSL   +99999+99999GF199999999999009141999999MA1101595101365REMMET13901/04/16 14:21:02 SPECI KPVD 041921Z 01013KT 1SM R05/P6000FT -SN BKN030 BKN041 OVC049 M04/M08 A3000 RMK AO2 SFC VIS 2 P0000 T10391083 (CMT)
0308725070147652016010419417+41722-071433FM-16+0019KPVD V0303605N00885008235MN0016095N5-00445-00835999999ADDAA101000021AU110030015AW1715ED105U18299GA1075+008235999GA2085+010975999GD13991+0082359GD24991+0109759GE19MSL   +99999+99999GF199999999999008231999999MA1101665101435REMMET13201/04/16 14:41:02 SPECI KPVD 041941Z 36017KT 1SM R05/P6000FT -SN BKN027 OVC036 M04/M08 A3002 RMK AO2 SFC VIS 2 P0000 T10441083 (CMT)
0249725070147652016010419496+41722-071433FM-16+0019KPVD V0303505N00825008845MN0032195N5-00405-00805999999ADDAU110030015AW1715GA1075+008845999GA2075+011585999GA3085+013725999GD13991+0088459GD23991+0115859GD34991+0137259MA1101665101435REMMET11201/04/16 14:49:02 SPECI KPVD 041949Z 35016KT 2SM -SN BKN029 BKN038 OVC045 M04/M08 A3002 RMK AO2 P0000 FIBI (CMT)
0320725070147652016010419517+41722-071433FM-15+0019KPVD V0303605N00775008845MN0032195N5-00445-00835101665ADDAA101000025AU110030015AW1715GA1075+008845999GA2075+011585999GA3085+013725999GD13991+0088459GD23991+0115859GD34991+0137259GE19MSL   +99999+99999GF199999999999008841999999MA1101665101435REMMET12401/04/16 14:51:02 METAR KPVD 041951Z 36015KT 2SM -SN BKN029 BKN038 OVC045 M04/M08 A3002 RMK AO2 SLP166 P0000 T10441083 (CMT)
0324725070147652016010420217+41722-071433FM-16+0019KPVD V0303605N00885008845MN0112655N5-00445-00895999999ADDAA101000021AU110030015AW1715GA1025+007015999GA2075+008845999GA3085+011585999GD11991+0070159GD23991+0088459GD34991+0115859GE19MSL   +99999+99999GF199999999999007011999999MA1101735101505OC101085REMMET12001/04/16 15:21:02 SPECI KPVD 042021Z 36017G21KT 7SM -SN FEW023 BKN029 OVC038 M04/M09 A3004 RMK AO2 P0000 T10441089 (CMT)
0275725070147652016010420427+41722-071433FM-16+0019KPVD V0303505N00625013115MN0064375N5-00445-00895999999ADDAA101000021AU110030015AW1715GA1025+006715999GA2085+013115999GD11991+0067159GD24991+0131159GE19MSL   +99999+99999GF199999999999006711999999MA1101765101535REMMET11001/04/16 15:42:02 SPECI KPVD 042042Z 35012KT 4SM -SN FEW022 OVC043 M04/M09 A3005 RMK AO2 P0000 T10441089 (CMT)
0387725070147652016010420517+41722-071433FM-15+0019KPVD V0300105N00775013115MN0064375N5-00445-00945101775ADDAA101000025AA203000021AU110030015AW1715GA1025+007325999GA2075+013115999GA3085+015245999GD11991+0073259GD23991+0131159GD34991+0152459GE19MSL   +99999+99999GF199999999999007321999999MA1101765101535MD1390289+9999OC101085REMMET13901/04/16 15:51:02 METAR KPVD 042051Z 01015G21KT 4SM -SN FEW024 BKN043 OVC050 M04/M09 A3005 RMK AO2 SLP177 P0000 60000 T10441094 53028 (CMT)EQDQ01  00008PRCP03
0330725070147652016010421517+41722-071433FM-15+0019KPVD V0303605N00725021345MN0048285N5-00445-01065101835ADDAA101000025AU110030015AW1715GA1025+007325999GA2075+021345999GA3085+076205999GD11991+0073259GD23991+0213459GD34991+0762059GE19MSL   +99999+99999GF199999999999007321999999MA1101835101605REMMET13401/04/16 16:51:02 METAR KPVD 042151Z 36014KT 3SM -SN FEW024 BKN070 OVC250 M04/M11 A3007 RMK AO2 SFC VIS 9 SLP183 P0000 T10441106 (CMT)
0293725070147652016010422517+41722-071433FM-15+0019KPVD V0303605N00985021345MN0144845N5-00505-01225101965ADDAA101000025AU110030015AW1715GA1025+015245999GA2085+021345999GD11991+0152459GD24991+0213459GE19MSL   +99999+99999GF199999999999015241999999MA1101965101735OC101245REMMET12001/04/16 17:51:02 METAR KPVD 042251Z 36019G24KT 9SM -SN FEW050 OVC070 M05/M12 A3011 RMK AO2 SLP196 P0000 T10501122 (CMT)
0362725070147652016010423517+41722-071433FM-15+0019KPVD V0303605N00465016765MN0160935N5-00565-01225102115ADDAA101000025AA206000021GA1075+016765999GA2075+021345999GD13991+0167659GD23991+0213459GE19MSL   +99999+99999GF199999999999016761999999KA1060M-00171KA2060N-00561MA1102105101875MD1390349+9999REMMET14401/04/16 18:51:02 METAR KPVD 042351Z 36009KT 10SM BKN055 BKN070 M06/M12 A3015 RMK AO2 SNE22 SLP211 P0000 60000 T10561122 11017 21056 53034 (CMT)EQDQ01  00008PRCP06
0228725070147652016010500004+41733-071433FM-12+001999999V0203601N004619999999N016000199-00561-01221102111ADDAA106000021GA1999+017501999GE19MSL   +99999+99999GF106991999999017501999999KA1120M+00001KA2120N-00561MA1999999101901MD1310341+9999REMSYN08672507 12766 63609 11056 21122 30190 40211 53034 69901 92351 333 10000 21056 555 90500=
0293725070147652016010500517+41722-071433FM-15+0019KPVD V0303605N01035010675MN0160935N5-00615-01395102225ADDAA101000095GA1075+010675999GA2085+018295999GD13991+0106759GD24991+0182959GE19MSL   +99999+99999GF199999999999010671999999MA1102245102015OC101345OD149901331360REMMET12301/04/16 19:51:01 METAR KPVD 050051Z 36020G26KT 10SM BKN035 OVC060 M06/M14 A3019 RMK AO2 PK WND 36026/0025 SLP222 T10611139
0283725070147652016010501517+41722-071433FM-15+0019KPVD V0303605N00725018295MN0160935N5-00675-01505102335ADDAA101000025AU110030015AW1715GA1025+012195999GA2085+018295999GD11991+0121959GD24991+0182959GE19MSL   +99999+99999GF199999999999012191999999MA1102345102115REMMET11801/04/16 20:51:02 METAR KPVD 050151Z 36014KT 10SM -SN FEW040 OVC060 M07/M15 A3022 RMK AO2 SNB08 SLP233 P0000 T10671150
0305725070147652016010502517+41722-071433FM-15+0019KPVD V0303505N00885018295MN0144845N5-00835-01615102465ADDAA101000025AA203000021AU110030015AW1715GA1085+018295999GD14991+0182959GE19MSL   +99999+99999GF199999999999018291999999MA1102475102245MD1390359+9999OC101085REMMET11901/04/16 21:51:02 METAR KPVD 050251Z 35017G21KT 9SM -SN OVC060 M08/M16 A3026 RMK AO2 SLP246 P0000 60000 T10831161 53035EQDQ01  00008PRCP03
0256725070147652016010503517+41722-071433FM-15+0019KPVD V0303505N00885018295MN0160935N5-00895-01725102555ADDAA101000025GA1075+018295999GD13991+0182959GE19MSL   +99999+99999GF199999999999018291999999MA1102545102315OD149901391360REMMET12501/04/16 22:51:02 METAR KPVD 050351Z 35017KT 10SM BKN060 M09/M17 A3028 RMK AO2 PK WND 36027/0313 SNE13 SLP255 P0000 T10891172
0311725070147652016010504517+41722-071433FM-15+0019KPVD V0303605N009352200059N0160935N5-00945-01785102615ADDAA101000095GA1025+016765999GD11991+0167659GE19AGL   +99999+99999GF102995999999016761999999KA1240M+00001KA2240N-00941MA1102615102385OC101395REMMET14101/04/16 23:51:02 METAR KPVD 050451Z 36018G27KT 10SM FEW055 M09/M18 A3030 RMK AO2 PK WND 01027/0446 SLP261 LAST AUGMENTED T10941178 400001094EQDD01      0ADE726
1037725070147652016010504596+41722-071433SOD  +0019KPVD V030999999999999999999999999999+99999+99999999999ADDAA124000025AJ100009599999999AN102400089AAT1AU18SN  5AT2AU13BR  5AX1015245KA1240M+00005KA2240N-00935KG1024W-0050D4KG2024D-0089D4MF1101254101664MG1101244100984OE11240138636099995OE22240107335099995OE33240058699999995RH1024X084D4RH2024N051D4RH3024M066D4REMSOD75624 HR PRECIPITATION (IN):    T SNOW DEPTH (IN):0     24 HR SNOWFALL (IN):0.3  WEATHER(CODE):1  24 HR MAX TEMP (F): 3224 HR MIN TEMP (F): 15AVERAGE STATION PRESSURE:29.895 MINIMUM SEA LEVEL PRESSURE:29.82 TIME OF OCCURRENCE:0129 PEAK WIND SPEED (MPH): 31 PEAK WIND DIR (DEG):360 PEAK WIND TIME (LST):      FASTEST 2MIN SPEED (MPH): 24FASTEST 2MIN DIR (DEG):350 FASTEST 2MIN TIME (LST):     AVERAGE WIND SPEED (MPH):13.1 24 HR AVG TEMP (F): 24DEPART FROM NORMAL: -6  HEATING DEGREE DAYS: 41 COOLING DEGREE DAYS:  0 LATEST DAY MAX TEMP (0700-1900 LST):32  LATEST NIGHT MIN TEMP(1900-0800 LST):23 HOURLY INCREMENTAL PRECIPITATION VALUES (IN):.00 0.00 0.00 0.00 0.00 0.00 0.00 T    T    T    T    T    0.00 T    T    T    T    T    T    0.00 T    T    T    0.00EQDR01   0.37ALS031
0273725070147652016010505517+41722-071433FM-15+0019KPVD V0303505N008252200059N0160935N5-01065-01895102685ADDAA101000095AA206000021GA1005+999999999GD10991+9999999GF100991999999999999999999KA1060M-00501KA2060N-01061MA1102685102445MD1190229+9999OC101295REMMET11901/05/16 00:51:02 METAR KPVD 050551Z 35016G25KT 10SM CLR M11/M19 A3032 RMK AO2 SLP268 60000 T11061189 11050 21106 51022
0184725070147652016010506004+41733-071433FM-12+001999999V0203501N008219999999N016000199-01061-01891102681ADDAA106000021KA1240M+00001KA2240N-01061MA1999999102481MD1110221+9999OD149901291999REMSYN09272507 12966 03516 11106 21189 30248 40268 51022 69901 90551 333 10000 21106 91025 555 90506=
0242725070147652016010506517+41722-071433FM-15+0019KPVD V0303505N006752200059N0160935N5-01115-01895102845ADDAA101000095GA1045+008235999GD12991+0082359GE19AGL   +99999+99999GF104995999999008231999999MA1102845102615OC100985REMMET09801/05/16 01:51:02 METAR KPVD 050651Z 35013G19KT 10SM SCT027 M11/M19 A3037 RMK AO2 SLP284 T11111189EQDD01      0ADE726
0231725070147652016010507517+41722-071433FM-15+0019KPVD V0303505N006252200059N0160935N5-01175-01895102945ADDAA101000095GA1025+007625999GD11991+0076259GE19AGL   +99999+99999GF102995999999007621999999MA1102955102725REMMET09501/05/16 02:51:02 METAR KPVD 050751Z 35012KT 10SM FEW025 M12/M19 A3040 RMK AO2 SLP294 T11171189EQDD01      0ADE726
0207725070147652016010508517+41722-071433FM-15+0019KPVD V0303605N006252200059N0160935N5-01225-02005103005ADDAA101000095GA1005+999999999GD10991+9999999GF100991999999999999999999MA1102985102755MD1190319+9999REMMET09801/05/16 03:51:02 METAR KPVD 050851Z 36012KT 10SM CLR M12/M20 A3041 RMK AO2 SLP300 T11221200 51031
0187725070147652016010509517+41722-071433FM-15+0019KPVD V0303405N006252200059N0160935N5-01225-02005103035ADDAA101000095GA1005+999999999GD10991+9999999GF100991999999999999999999MA1103015102785REMMET09201/05/16 04:51:02 METAR KPVD 050951Z 34012KT 10SM CLR M12/M20 A3042 RMK AO2 SLP303 T11221200
0208725070147652016010510517+41722-071433FM-15+0019KPVD V0303505N006252200059N0160935N5-01285-02065103125ADDAA101000095GA1005+999999999GD10991+9999999GF100991999999999999999999MA1103125102885REMMET11301/05/16 05:51:02 METAR KPVD 051051Z 35012KT 10SM CLR M13/M21 A3045 RMK AO2 SLP312 FIRST AUGMENTED T11281206 (EH)
0294725070147652016010511517+41722-071433FM-15+0019KPVD V0303505N005752200059N0160935N5-01285-02065103265ADDAA101000095GA1025+012195999GD11991+0121959GE19AGL   +99999+99999GF102995999999012191999999KA1060M-01061KA2060N-01281MA1103255103025MD1390269+9999REMMET11801/05/16 06:51:02 METAR KPVD 051151Z 35011KT 10SM FEW040 M13/M21 A3049 RMK AO2 SLP326 T11281206 11106 21128 53026 (EH)EQDD01      0ADE726
0211725070147652016010512004+41733-071433FM-12+001999999V0203501N005719999999N016000199-01281-02061103261ADDGA1999+012501999GE19MSL   +99999+99999GF102991999999012501999999KA1240M+00001KA2240N-01281MA1999999103051MD1310261+9999REMSYN08072507 32666 23511 11128 21206 30305 40326 53026 91151 333 10000 21128 555 90512=
0236725070147652016010512517+41722-071433FM-15+0019KPVD V0303505N006252200059N0160935N5-01285-02005103365ADDAA101000095GA1025+009145999GD11991+0091459GE19AGL   +99999+99999GF102995999999009141999999MA1103355103125REMMET10001/05/16 07:51:02 METAR KPVD 051251Z 35012KT 10SM FEW030 M13/M20 A3052 RMK AO2 SLP336 T11281200 (EH)EQDD01      0ADE726
0249725070147652016010513517+41722-071433FM-15+0019KPVD V0303505N005752200059N0160935N5-01115-02005103435ADDAA101000095GA1025+012195999GD11991+0121959GE19AGL   +99999+99999GF102995999999012191999999MA1103425103195OC100935REMMET10501/05/16 08:51:02 METAR KPVD 051351Z 35011G18KT 10SM FEW040 M11/M20 A3054 RMK AO2 SLP343 T11111200 $ (EH)EQDD01      0ADE726
0294725070147652016010514517+41722-071433FM-15+0019KPVD V0303505N005752200059N0160935N5-00895-02065103465ADDAA101000095GA1025+013725999GA2025+021345999GD11991+0137259GD21991+0213459GE19AGL   +99999+99999GF102995999999013721999999MA1103455103225MD1190209+9999REMMET11301/05/16 09:51:02 METAR KPVD 051451Z 35011KT 10SM FEW045 FEW070 M09/M21 A3055 RMK AO2 SLP346 T10891206 51020 (EH)EQDD01      0ADE726
0274725070147652016010515517+41722-071433FM-15+0019KPVD V0300105N003652200059N0160935N5-00725-02065103525ADDAA101000095GA1025+016765999GA2025+021345999GD11991+0167659GD21991+0213459GE19AGL   +99999+99999GF102995999999016761999999MA1103525103295REMMET10701/05/16 10:51:02 METAR KPVD 051551Z 01007KT 10SM FEW055 FEW070 M07/M21 A3057 RMK AO2 SLP352 T10721206 (EH)EQDD01      0ADE726
0274725070147652016010516517+41722-071433FM-15+0019KPVD V0303405N005752200059N0160935N5-00565-02065103375ADDAA101000095GA1025+016765999GA2025+021345999GD11991+0167659GD21991+0213459GE19AGL   +99999+99999GF102995999999016761999999MA1103355103125REMMET10701/05/16 11:51:02 METAR KPVD 051651Z 34011KT 10SM FEW055 FEW070 M06/M21 A3052 RMK AO2 SLP337 T10561206 (EH)EQDD01      0ADE726
0294725070147652016010517517+41722-071433FM-15+0019KPVD V0303505N005152200059N0160935N5-00395-02005103335ADDAA101000095GA1025+024385999GD11991+0243859GE19AGL   +99999+99999GF102995999999024381999999KA1060M-00391KA2060N-01331MA1103325103095MD1890149+9999REMMET11801/05/16 12:51:02 METAR KPVD 051751Z 35010KT 10SM FEW080 M04/M20 A3051 RMK AO2 SLP333 T10391200 11039 21133 58014 (EH)EQDD01      0ADE726
0211725070147652016010518004+41733-071433FM-12+001999999V0203501N005119999999N016000199-00391-02001103331ADDGA1999+022501999GE19MSL   +99999+99999GF102991999999022501999999KA1120M-00391KA2120N-01331MA1999999103121MD1810141+9999REMSYN08072507 32866 23510 11039 21200 30312 40333 58014 91751 333 11039 21133 555 90518=
0193725070147652016010518517+41722-071433FM-15+0019KPVD V0303305N003652200059N0160935N5-00285-02115103345ADDAA101000095GA1005+999999999GD10991+9999999GF100991999999999999999999MA1103325103095REMMET09801/05/16 13:51:02 METAR KPVD 051851Z 33007KT 10SM CLR M03/M21 A3051 RMK AO2 SLP334 T10281211 (CMT)
0193725070147652016010519517+41722-071433FM-15+0019KPVD V0309999V002152200059N0160935N5-00225-02175103415ADDAA101000095GA1005+999999999GD10991+9999999GF100991999999999999999999MA1103425103195REMMET09801/05/16 14:51:02 METAR KPVD 051951Z VRB04KT 10SM CLR M02/M22 A3054 RMK AO2 SLP341 T10221217 (CMT)
0213725070147652016010520517+41722-071433FM-15+0019KPVD V0303405N001552200059N0160935N5-00285-02115103515ADDAA101000095GA1005+999999999GD10991+9999999GF100991999999999999999999MA1103495103265MD1390189+9999REMMET10401/05/16 15:51:02 METAR KPVD 052051Z 34003KT 10SM CLR M03/M21 A3056 RMK AO2 SLP351 T10281211 53018 (CMT)
0193725070147652016010521517+41722-071433FM-15+0019KPVD V0303505N002152200059N0160935N5-00445-02065103565ADDAA101000095GA1005+999999999GD10991+9999999GF100991999999999999999999MA1103565103325REMMET09801/05/16 16:51:02 METAR KPVD 052151Z 35004KT 10SM CLR M04/M21 A3058 RMK AO2 SLP356 T10441206 (CMT)
0193725070147652016010522517+41722-071433FM-15+0019KPVD V0302905N002152200059N0160935N5-00505-01835103595ADDAA101000095GA1005+999999999GD10991+9999999GF100991999999999999999999MA1103595103365REMMET09801/05/16 17:51:02 METAR KPVD 052251Z 29004KT 10SM CLR M05/M18 A3059 RMK AO2 SLP359 T10501183 (CMT)
0251725070147652016010523517+41722-071433FM-15+0019KPVD V0302805N001552200059N0160935N5-00565-01675103585ADDAA101000095GA1005+999999999GD10991+9999999GF100991999999999999999999KA1060M-00221KA2060N-00611MA1103595103365MD1090089+9999REMMET11601/05/16 18:51:02 METAR KPVD 052351Z 28003KT 10SM CLR M06/M17 A3059 RMK AO2 SLP358 T10561167 11022 21061 50008 (CMT)
0147725070147652016010600004+41733-071433FM-12+001999999V0202801N001519999999N016000199-00561-01671103581ADDKA1120M-00221KA2120N-01281MA1999999103391MD1990081+9999REMSYN08072507 32966 02803 11056 21167 30339 40358 50008 92351 333 11022 21128 555 90600=
0187725070147652016010600517+41722-071433FM-15+0019KPVD V0302505N001552200059N0160935N5-00675-01725103585ADDAA101000095GA1005+999999999GD10991+9999999GF100991999999999999999999MA1103595103365REMMET09201/05/16 19:51:01 METAR KPVD 060051Z 25003KT 10SM CLR M07/M17 A3059 RMK AO2 SLP358 T10671172
0187725070147652016010601517+41722-071433FM-15+0019KPVD V0302405N002152200059N0160935N5-00675-01675103595ADDAA101000095GA1005+999999999GD10991+9999999GF100991999999999999999999MA1103595103365REMMET09201/05/16 20:51:01 METAR KPVD 060151Z 24004KT 10SM CLR M07/M17 A3059 RMK AO2 SLP359 T10671167
0207725070147652016010602517+41722-071433FM-15+0019KPVD V0302605N002652200059N0160935N5-00725-01615103595ADDAA101000095GA1005+999999999GD10991+9999999GF100991999999999999999999MA1103595103365MD1290019+9999REMMET09801/05/16 21:51:01 METAR KPVD 060251Z 26005KT 10SM CLR M07/M16 A3059 RMK AO2 SLP359 T10721161 52001
0187725070147652016010603517+41722-071433FM-15+0019KPVD V0302505N003652200059N0160935N5-00725-01725103565ADDAA101000095GA1005+999999999GD10991+9999999GF100991999999999999999999MA1103565103325REMMET09201/05/16 22:51:02 METAR KPVD 060351Z 25007KT 10SM CLR M07/M17 A3058 RMK AO2 SLP356 T10721172
0238725070147652016010604517+41722-071433FM-15+0019KPVD V0302605N003152200059N0160935N5-00725-01725103525ADDAA101000095GA1005+999999999GD10991+9999999GF100991999999999999999999KA1240M-00221KA2240N-01331MA1103525103295REMMET11701/05/16 23:51:02 METAR KPVD 060451Z 26006KT 10SM CLR M07/M17 A3057 RMK AO2 SLP352 LAST AUGMENTED T10721172 410221133
0968725070147652016010604596+41722-071433SOD  +0019KPVD V030999999999999999999999999999+99999+99999999999ADDAA124000095AJ100009599999999AN1024000095KA1240M-00215KA2240N-01325KG1024W-0106D4KG2024D-0189D4MF1102954103354MG1102964102644OE11240129636099995OE22240102836099995OE33240042999999995RH1024X055D4RH2024N021D4RH3024M041D4REMSOD73924 HR PRECIPITATION (IN): 0.00 SNOW DEPTH (IN):0     24 HR SNOWFALL (IN):0.0  24 HR MAX TEMP (F): 2824 HR MIN TEMP (F):  8AVERAGE STATION PRESSURE:30.405 MINIMUM SEA LEVEL PRESSURE:30.31 TIME OF OCCURRENCE:0042 PEAK WIND SPEED (MPH): 29 PEAK WIND DIR (DEG):360 PEAK WIND TIME (LST):      FASTEST 2MIN SPEED (MPH): 23FASTEST 2MIN DIR (DEG):360 FASTEST 2MIN TIME (LST):     AVERAGE WIND SPEED (MPH): 9.6 24 HR AVG TEMP (F): 18DEPART FROM NORMAL:-12  HEATING DEGREE DAYS: 47 COOLING DEGREE DAYS:  0 LATEST DAY MAX TEMP (0700-1900 LST):28  LATEST NIGHT MIN TEMP(1900-0800 LST):8  HOURLY INCREMENTAL PRECIPITATION VALUES (IN):.00 0.00 0.00 0.00 0.00 0.00 0.00 0.00 0.00 0.00 0.00 0.00 0.00 0.00 0.00 0.00 0.00 0.00 0.00 0.00 0.00 0.00 0.00 0.00
0245725070147652016010605517+41722-071433FM-15+0019KPVD V0302805N001552200059N0160935N5-00785-01675103465ADDAA101000095GA1005+999999999GD10991+9999999GF100991999999999999999999KA1060M-00561KA2060N-00781MA1103455103225MD1890129+9999REMMET11001/06/16 00:51:02 METAR KPVD 060551Z 28003KT 10SM CLR M08/M17 A3055 RMK AO2 SLP346 T10781167 11056 21078 58012
0147725070147652016010606004+41733-071433FM-12+001999999V0202801N001519999999N016000199-00781-01671103461ADDKA1240M-00561KA2240N-01281MA1999999103251MD1810121+9999REMSYN08072507 32966 02803 11078 21167 30325 40346 58012 90551 333 11056 21128 555 90606=
0187725070147652016010606517+41722-071433FM-15+0019KPVD V0302605N002152200059N0160935N5-00835-01615103485ADDAA101000095GA1005+999999999GD10991+9999999GF100991999999999999999999MA1103495103265REMMET09201/06/16 01:51:02 METAR KPVD 060651Z 26004KT 10SM CLR M08/M16 A3056 RMK AO2 SLP348 T10831161
0187725070147652016010607517+41722-071433FM-15+0019KPVD V0302605N003152200059N0160935N5-00785-01675103455ADDAA101000095GA1005+999999999GD10991+9999999GF100991999999999999999999MA1103455103225REMMET09201/06/16 02:51:02 METAR KPVD 060751Z 26006KT 10SM CLR M08/M17 A3055 RMK AO2 SLP345 T10781167
0207725070147652016010608517+41722-071433FM-15+0019KPVD V0302305N001552200059N0160935N5-00835-01725103415ADDAA101000095GA1005+999999999GD10991+9999999GF100991999999999999999999MA1103425103195MD1890059+9999REMMET09801/06/16 03:51:02 METAR KPVD 060851Z 23003KT 10SM CLR M08/M17 A3054 RMK AO2 SLP341 T10831172 58005
0187725070147652016010609517+41722-071433FM-15+0019KPVD V0302405N001552200059N0160935N5-00895-01675103385ADDAA101000095GA1005+999999999GD10991+9999999GF100991999999999999999999MA1103395103155REMMET09201/06/16 04:51:02 METAR KPVD 060951Z 24003KT 10SM CLR M09/M17 A3053 RMK AO2 SLP338 T10891167
0252725070147652016010610517+41722-071433FM-15+0019KPVD V0302405N002652200059N0160935N5-01005-01615103395ADDAA101000095GA1025+076205999GD11991+0762059GE19AGL   +99999+99999GF102995999999076201999999MA1103395103155REMMET11601/06/16 05:51:02 METAR KPVD 061051Z 24005KT 10SM FEW250 M10/M16 A3053 RMK AO2 SLP339 FIRST AUGMENTED T11001161 (EH)EQDD01      0ADE726
0250725070147652016010611517+41722-071433FM-15+0019KPVD V0302305N001552200059N0160935N5-00945-01615103435ADDAA101000095GA1005+999999999GD10991+9999999GF100991999999999999999999KA1060M-00721KA2060N-01061MA1103425103195MD1590009+9999REMMET11501/06/16 06:51:02 METAR KPVD 061151Z 23003KT 10SM CLR M09/M16 A3054 RMK AO2 SLP343 T10941161 11072 21106 55000 (EH)
0147725070147652016010612004+41733-071433FM-12+001999999V0202301N001519999999N016000199-00941-01611103431ADDKA1240M-00221KA2240N-01061MA1999999103221MD1510001+9999REMSYN08072507 32966 02303 11094 21161 30322 40343 55000 91151 333 11022 21106 555 90612=
0192725070147652016010612517+41722-071433FM-15+0019KPVD V0302005N001552200059N0160935N5-00835-01445103415ADDAA101000095GA1005+999999999GD10991+9999999GF100991999999999999999999MA1103395103155REMMET09701/06/16 07:51:02 METAR KPVD 061251Z 20003KT 10SM CLR M08/M14 A3053 RMK AO2 SLP341 T10831144 (EH)
0236725070147652016010613517+41722-071433FM-15+0019KPVD V0302505N002652200059N0160935N5-00285-01615103395ADDAA101000095GA1025+076205999GD11991+0762059GE19AGL   +99999+99999GF102995999999076201999999MA1103395103155REMMET10001/06/16 08:51:02 METAR KPVD 061351Z 25005KT 10SM FEW250 M03/M16 A3053 RMK AO2 SLP339 T10281161 (EH)EQDD01      0ADE726
0255725070147652016010614517+41722-071433FM-15+0019KPVD V0301605N002652200059N0160935N5+00005-01565103405ADDAA101000095GA1025+076205999GD11991+0762059GE19AGL   +99999+99999GF102995999999076201999999MA1103425103195MD1590019+9999REMMET10501/06/16 09:51:02 METAR KPVD 061451Z 16005KT 10SM FEW250 00/M16 A3054 RMK AO2 SLP340 T00001156 55001 (EH)EQDD01      0ADE726
0235725070147652016010615517+41722-071433FM-15+0019KPVD V0302305N004652200059N0160935N5+00395-02065103355ADDAA101000095GA1025+076205999GD11991+0762059GE19AGL   +99999+99999GF102995999999076201999999MA1103355103125REMMET09901/06/16 10:51:02 METAR KPVD 061551Z 23009KT 10SM FEW250 04/M21 A3052 RMK AO2 SLP335 T00391206 (EH)EQDD01      0ADE726
0235725070147652016010616517+41722-071433FM-15+0019KPVD V0302305N005152200059N0160935N5+00565-02065103225ADDAA101000095GA1025+076205999GD11991+0762059GE19AGL   +99999+99999GF102995999999076201999999MA1103225102995REMMET09901/06/16 11:51:02 METAR KPVD 061651Z 23010KT 10SM FEW250 06/M21 A3048 RMK AO2 SLP322 T00561206 (EH)EQDD01      0ADE726
0293725070147652016010617517+41722-071433FM-15+0019KPVD V0302305N005752200059N0160935N5+00615-02175103155ADDAA101000095GA1025+076205999GD11991+0762059GE19AGL   +99999+99999GF102995999999076201999999KA1060M+00611KA2060N-00941MA1103155102925MD1890259+9999REMMET11701/06/16 12:51:02 METAR KPVD 061751Z 23011KT 10SM FEW250 06/M22 A3046 RMK AO2 SLP315 T00611217 10061 21094 58025 (EH)EQDD01      0ADE726
0195725070147652016010618004+41733-071433FM-12+001999999V0202301N005719999999N016000199+00611-02171103151ADDGE19MSL   +99999+99999GF102991999999999999999999KA1120M+00611KA2120N-00941MA1999999102951MD1810251+9999REMSYN08072507 32966 22311 10061 21217 30295 40315 58025 91751 333 10061 21094 555 90618=
0235725070147652016010618517+41722-071433FM-15+0019KPVD V0302305N004652200059N0160935N5+00615-02175103055ADDAA101000095GA1025+076205999GD11991+0762059GE19AGL   +99999+99999GF102995999999076201999999MA1103055102825REMMET09901/06/16 13:51:02 METAR KPVD 061851Z 23009KT 10SM FEW250 06/M22 A3043 RMK AO2 SLP305 T00611217 (EH)EQDD01      0ADE726
0235725070147652016010619517+41722-071433FM-15+0019KPVD V0302605N005152200059N0160935N5+00615-02115103005ADDAA101000095GA1025+076205999GD11991+0762059GE19AGL   +99999+99999GF102995999999076201999999MA1103015102785REMMET09901/06/16 14:51:02 METAR KPVD 061951Z 26010KT 10SM FEW250 06/M21 A3042 RMK AO2 SLP300 T00611211 (FA)EQDD01      0ADE726
0272725070147652016010620517+41722-071433FM-15+0019KPVD V0302205N004152200059N0160935N5+00505-01945102995ADDAA101000095AA203000021GA1025+076205999GD11991+0762059GE19AGL   +99999+99999GF102995999999076201999999MA1102985102755MD1690169+9999REMMET11101/06/16 15:51:02 METAR KPVD 062051Z 22008KT 10SM FEW250 05/M19 A3041 RMK AO2 SLP299 60000 T00501194 56016 (FA)EQDD01      0ADE726
0235725070147652016010621517+41722-071433FM-15+0019KPVD V0302105N002652200059N0160935N5+00175-01895103005ADDAA101000095GA1025+076205999GD11991+0762059GE19AGL   +99999+99999GF102995999999076201999999MA1103015102785REMMET09901/06/16 16:51:02 METAR KPVD 062151Z 21005KT 10SM FEW250 02/M19 A3042 RMK AO2 SLP300 T00171189 (FA)EQDD01      0ADE726
0235725070147652016010622517+41722-071433FM-15+0019KPVD V0302105N003152200059N0160935N5+00065-01285103035ADDAA101000095GA1025+076205999GD11991+0762059GE19AGL   +99999+99999GF102995999999076201999999MA1103015102785REMMET09901/06/16 17:51:02 METAR KPVD 062251Z 21006KT 10SM FEW250 01/M13 A3042 RMK AO2 SLP303 T00061128 (FA)EQDD01      0ADE726
0267725070147652016010623517+41722-071433FM-15+0019KPVD V0302205N002652200059N0160935N5-00065-01225102995ADDAA101000095AA206000021GA1005+999999999GD10991+9999999GF100991999999999999999999KA1060M+00611KA2060N-00111MA1102985102755MD1090009+9999REMMET12101/06/16 18:51:02 METAR KPVD 062351Z 22005KT 10SM CLR M01/M12 A3041 RMK AO2 SLP299 60000 T10061122 10061 21011 50000 (FA)
0183725070147652016010700004+41733-071433FM-12+001999999V0202201N002619999999N016000199-00061-01221102991ADDAA106000091KA1120M+00611KA2120N-01061MA1999999102781MD1990001+9999REMSYN08672507 12966 02205 11006 21122 30278 40299 50000 69901 92351 333 10061 21106 555 90700=EQDQ01  00002PRCP06
0187725070147652016010700517+41722-071433FM-15+0019KPVD V0302505N003652200059N0160935N5-00065-01115103005ADDAA101000095GA1005+999999999GD10991+9999999GF100991999999999999999999MA1103015102785REMMET09201/06/16 19:51:01 METAR KPVD 070051Z 25007KT 10SM CLR M01/M11 A3042 RMK AO2 SLP300 T10061111
0187725070147652016010701517+41722-071433FM-15+0019KPVD V0302705N002652200059N0160935N5-00115-01115103005ADDAA101000095GA1005+999999999GD10991+9999999GF100991999999999999999999MA1103015102785REMMET09201/06/16 20:51:01 METAR KPVD 070151Z 27005KT 10SM CLR M01/M11 A3042 RMK AO2 SLP300 T10111111
0207725070147652016010702517+41722-071433FM-15+0019KPVD V0302405N002152200059N0160935N5-00115-00945102995ADDAA101000095GA1005+999999999GD10991+9999999GF100991999999999999999999MA1103015102785MD1090019+9999REMMET09801/06/16 21:51:01 METAR KPVD 070251Z 24004KT 10SM CLR M01/M09 A3042 RMK AO2 SLP299 T10111094 50001
0187725070147652016010703517+41722-071433FM-15+0019KPVD V0302105N002152200059N0160935N5-00175-00835102965ADDAA101000095GA1005+999999999GD10991+9999999GF100991999999999999999999MA1102985102755REMMET09201/06/16 22:51:01 METAR KPVD 070351Z 21004KT 10SM CLR M02/M08 A3041 RMK AO2 SLP296 T10171083
0238725070147652016010704517+41722-071433FM-15+0019KPVD V0302005N002152200059N0160935N5-00285-00835102875ADDAA101000095GA1005+999999999GD10991+9999999GF100991999999999999999999KA1240M+00611KA2240N-01061MA1102885102655REMMET11701/06/16 23:51:02 METAR KPVD 070451Z 20004KT 10SM CLR M03/M08 A3038 RMK AO2 SLP287 LAST AUGMENTED T10281083 400611106
0968725070147652016010704596+41722-071433SOD  +0019KPVD V030999999999999999999999999999+99999+99999999999ADDAA124000095AJ100009599999999AN1024000095KA1240M+00615KA2240N-01055KG1024W-0056D4KG2024D-0156D4MF1103014103184MG1103014102844OE11240089423099995OE22240071525099995OE33240029599999995RH1024X066D4RH2024N012D4RH3024M039D4REMSOD73924 HR PRECIPITATION (IN): 0.00 SNOW DEPTH (IN):0     24 HR SNOWFALL (IN):0.0  24 HR MAX TEMP (F): 4324 HR MIN TEMP (F): 13AVERAGE STATION PRESSURE:30.420 MINIMUM SEA LEVEL PRESSURE:30.37 TIME OF OCCURRENCE:2345 PEAK WIND SPEED (MPH): 20 PEAK WIND DIR (DEG):230 PEAK WIND TIME (LST):      FASTEST 2MIN SPEED (MPH): 16FASTEST 2MIN DIR (DEG):250 FASTEST 2MIN TIME (LST):     AVERAGE WIND SPEED (MPH): 6.6 24 HR AVG TEMP (F): 28DEPART FROM NORMAL: -1  HEATING DEGREE DAYS: 37 COOLING DEGREE DAYS:  0 LATEST DAY MAX TEMP (0700-1900 LST):43  LATEST NIGHT MIN TEMP(1900-0800 LST):13 HOURLY INCREMENTAL PRECIPITATION VALUES (IN):.00 0.00 0.00 0.00 0.00 0.00 0.00 0.00 0.00 0.00 0.00 0.00 0.00 0.00 0.00 0.00 0.00 0.00 0.00 0.00 0.00 0.00 0.00 0.00
0245725070147652016010705517+41722-071433FM-15+0019KPVD V0301505N001552200059N0160935N5-00395-00895102825ADDAA101000095GA1005+999999999GD10991+9999999GF100991999999999999999999KA1060M+00001KA2060N-00441MA1102815102585MD1890189+9999REMMET11001/07/16 00:51:02 METAR KPVD 070551Z 15003KT 10SM CLR M04/M09 A3036 RMK AO2 SLP282 T10391089 10000 21044 58018
0147725070147652016010706004+41733-071433FM-12+001999999V0201501N001519999999N016000199-00391-00891102821ADDKA1240M+00001KA2240N-01061MA1999999102611MD1810181+9999REMSYN08072507 35966 01503 11039 21089 30261 40282 58018 90551 333 10000 21106 555 90706=
0187725070147652016010706517+41722-071433FM-15+0019KPVD V0302605N001552200059N0160935N5-00225-00895102765ADDAA101000095GA1005+999999999GD10991+9999999GF100991999999999999999999MA1102785102555REMMET09201/07/16 01:51:02 METAR KPVD 070651Z 26003KT 10SM CLR M02/M09 A3035 RMK AO2 SLP276 T10221089
0187725070147652016010707517+41722-071433FM-15+0019KPVD V0302405N003152200059N0160935N5-00175-01005102745ADDAA101000095GA1005+999999999GD10991+9999999GF100991999999999999999999MA1102745102515REMMET09201/07/16 02:51:02 METAR KPVD 070751Z 24006KT 10SM CLR M02/M10 A3034 RMK AO2 SLP274 T10171100
0207725070147652016010708517+41722-071433FM-15+0019KPVD V0301805N001552200059N0160935N5-00505-01115102745ADDAA101000095GA1005+999999999GD10991+9999999GF100991999999999999999999MA1102745102515MD1690079+9999REMMET09801/07/16 03:51:02 METAR KPVD 070851Z 18003KT 10SM CLR M05/M11 A3034 RMK AO2 SLP274 T10501111 56007
0187725070147652016010709517+41722-071433FM-15+0019KPVD V0302305N002152200059N0160935N5-00395-01225102725ADDAA101000095GA1005+999999999GD10991+9999999GF100991999999999999999999MA1102745102515REMMET09201/07/16 04:51:02 METAR KPVD 070951Z 23004KT 10SM CLR M04/M12 A3034 RMK AO2 SLP272 T10391122
0208725070147652016010710517+41722-071433FM-15+0019KPVD V0301805N001552200059N0160935N5-00565-01175102775ADDAA101000095GA1005+999999999GD10991+9999999GF100991999999999999999999MA1102785102555REMMET11301/07/16 05:51:02 METAR KPVD 071051Z 18003KT 10SM CLR M06/M12 A3035 RMK AO2 SLP277 FIRST AUGMENTED T10561117 (EH)
0294725070147652016010711517+41722-071433FM-15+0019KPVD V0301305N002152200059N0160935N5-00565-01115102765ADDAA101000095GA1025+076205999GD11991+0762059GE19AGL   +99999+99999GF102995999999076201999999KA1060M-00111KA2060N-00671MA1102785102555MD1390019+9999REMMET11801/07/16 06:51:02 METAR KPVD 071151Z 13004KT 10SM FEW250 M06/M11 A3035 RMK AO2 SLP276 T10561111 11011 21067 53001 (EH)EQDD01      0ADE726
0195725070147652016010712004+41733-071433FM-12+001999999V0201301N002119999999N016000199-00561-01111102761ADDGE19MSL   +99999+99999GF102991999999999999999999KA1240M+00611KA2240N-00671MA1999999102581MD1310011+9999REMSYN08072507 32966 21304 11056 21111 30258 40276 53001 91151 333 10061 21067 555 90712=
0236725070147652016010712517+41722-071433FM-15+0019KPVD V0302405N002652200059N0160935N5-00565-01175102745ADDAA101000095GA1045+076205999GD12991+0762059GE19AGL   +99999+99999GF104995999999076201999999MA1102745102515REMMET10001/07/16 07:51:02 METAR KPVD 071251Z 24005KT 10SM SCT250 M06/M12 A3034 RMK AO2 SLP274 T10561117 (EH)EQDD01      0ADE726
0217725070147652016010713517+41722-071433FM-15+0019KPVD V0302105N00155076205MN0160935N5-00115-01065102785ADDAA101000095GA1075+076205999GD13991+0762059GE19MSL   +99999+99999GF199999999999076201999999MA1102785102555REMMET10001/07/16 08:51:02 METAR KPVD 071351Z 21003KT 10SM BKN250 M01/M11 A3035 RMK AO2 SLP278 T10111106 (EH)
0274725070147652016010714517+41722-071433FM-15+0019KPVD V0303005N00155076205MN0160935N5+00175-01175102765ADDAA101000095GA1025+045725999GA2075+076205999GD11991+0457259GD23991+0762059GE19MSL   +99999+99999GF199999999999045721999999MA1102785102555MD1090009+9999REMMET11201/07/16 09:51:02 METAR KPVD 071451Z 30003KT 10SM FEW150 BKN250 02/M12 A3035 RMK AO2 SLP276 T00171117 50000 (EH)
0216725070147652016010715517+41722-071433FM-15+0019KPVD V0309999C00005076205MN0160935N5+00395-01285102705ADDAA101000095GA1075+076205999GD13991+0762059GE19MSL   +99999+99999GF199999999999076201999999MA1102715102485REMMET09901/07/16 10:51:02 METAR KPVD 071551Z 00000KT 10SM BKN250 04/M13 A3033 RMK AO2 SLP270 T00391128 (EH)
0254725070147652016010716517+41722-071433FM-15+0019KPVD V0300405N00265076205MN0160935N5+00615-01335102545ADDAA101000095GA1025+060965999GA2075+076205999GD11991+0609659GD23991+0762059GE19MSL   +99999+99999GF199999999999060961999999MA1102545102315REMMET10601/07/16 11:51:02 METAR KPVD 071651Z 04005KT 10SM FEW200 BKN250 06/M13 A3028 RMK AO2 SLP254 T00611133 (EH)
0350725070147652016010717517+41722-071433FM-15+0019KPVD V0301005N00215091445MN0160935N5+00615-01335102455ADDAA101000095GA1025+045725999GA2045+076205999GA3075+091445999GD11991+0457259GD22991+0762059GD33991+0914459GE19MSL   +99999+99999GF199999999999045721999999KA1060M+00611KA2060N-00721MA1102475102245MD1890309+9999REMMET13101/07/16 12:51:02 METAR KPVD 071751Z 10004KT 10SM FEW150 SCT250 BKN300 06/M13 A3026 RMK AO2 SLP245 T00611133 10061 21072 58030 (EH)
0195725070147652016010718004+41733-071433FM-12+001999999V0201001N002119999999N016000199+00611-01331102451ADDGE19MSL   +99999+99999GF106991999999999999999999KA1120M+00611KA2120N-00721MA1999999102271MD1810301+9999REMSYN08072507 32966 61004 10061 21133 30227 40245 58030 91751 333 10061 21072 555 90718=
0254725070147652016010718517+41722-071433FM-15+0019KPVD V0301305N00215091445MN0160935N5+00615-01225102425ADDAA101000095GA1025+076205999GA2075+091445999GD11991+0762059GD23991+0914459GE19MSL   +99999+99999GF199999999999076201999999MA1102445102215REMMET10601/07/16 13:51:02 METAR KPVD 071851Z 13004KT 10SM FEW250 BKN300 06/M12 A3025 RMK AO2 SLP242 T00611122 (EH)
0217725070147652016010719517+41722-071433FM-15+0019KPVD V0301605N00155091445MN0160935N5+00615-01505102395ADDAA101000095GA1075+091445999GD13991+0914459GE19MSL   +99999+99999GF199999999999091441999999MA1102405102175REMMET10001/07/16 14:51:02 METAR KPVD 071951Z 16003KT 10SM BKN300 06/M15 A3024 RMK AO2 SLP239 T00611150 (CMT)
0189725070147652016010720516+41722-071433FM-15+0019KPVD V0309999C00005091445MN0160935N5+00615-01565102405ADDAA101000095GA1075+091445999GD13991+0914459MA1102405102175MD1590059+9999REMMET10601/07/16 15:51:02 METAR KPVD 072051Z 00000KT 10SM BKN300 06/M16 A3024 RMK AO2 SLP240 T00611156 55005 (CMT)
0217725070147652016010721517+41722-071433FM-15+0019KPVD V0309999C00005091445MN0160935N5+00395-01565102435ADDAA101000095GA1075+091445999GD13991+0914459GE19MSL   +99999+99999GF199999999999091441999999MA1102445102215REMMET10001/07/16 16:51:02 METAR KPVD 072151Z 00000KT 10SM BKN300 04/M16 A3025 RMK AO2 SLP243 T00391156 (CMT)
0236725070147652016010722517+41722-071433FM-15+0019KPVD V0309999C000052200059N0160935N5+00115-01285102445ADDAA101000095GA1045+091445999GD12991+0914459GE19AGL   +99999+99999GF104995999999091441999999MA1102445102215REMMET10001/07/16 17:51:02 METAR KPVD 072251Z 00000KT 10SM SCT300 01/M13 A3025 RMK AO2 SLP244 T00111128 (CMT)EQDD01      0ADE726
0250725070147652016010723517+41722-071433FM-15+0019KPVD V0300205N002152200059N0160935N5+00065-00945102485ADDAA101000095GA1005+999999999GD10991+9999999GF100991999999999999999999KA1060M+00721KA2060N-00171MA1102475102245MD1390089+9999REMMET11501/07/16 18:51:02 METAR KPVD 072351Z 02004KT 10SM CLR 01/M09 A3026 RMK AO2 SLP248 T00061094 10072 21017 53008 (CMT)
0147725070147652016010800004+41733-071433FM-12+001999999V0200201N002119999999N016000199+00061-00941102481ADDKA1120M+00721KA2120N-00671MA1999999102271MD1310081+9999REMSYN08072507 32966 00204 10006 21094 30227 40248 53008 92351 333 10072 21067 555 90800=
0186725070147652016010800517+41722-071433FM-15+0019KPVD V0303605N002652200059N0160935N5+00065-00945102505ADDAA101000095GA1005+999999999GD10991+9999999GF100991999999999999999999MA1102515102285REMMET09101/07/16 19:51:01 METAR KPVD 080051Z 36005KT 10SM CLR 01/M09 A3027 RMK AO2 SLP250 T00061094
0187725070147652016010801517+41722-071433FM-15+0019KPVD V0303605N003152200059N0160935N5-00115-00945102485ADDAA101000095GA1005+999999999GD10991+9999999GF100991999999999999999999MA1102475102245REMMET09201/07/16 20:51:01 METAR KPVD 080151Z 36006KT 10SM CLR M01/M09 A3026 RMK AO2 SLP248 T10111094
0207725070147652016010802517+41722-071433FM-15+0019KPVD V0303505N002652200059N0160935N5-00115-01005102435ADDAA101000095GA1005+999999999GD10991+9999999GF100991999999999999999999MA1102445102215MD1890059+9999REMMET09801/07/16 21:51:01 METAR KPVD 080251Z 35005KT 10SM CLR M01/M10 A3025 RMK AO2 SLP243 T10111100 58005
0187725070147652016010803517+41722-071433FM-15+0019KPVD V0309999C000052200059N0160935N5-00395-00945102425ADDAA101000095GA1005+999999999GD10991+9999999GF100991999999999999999999MA1102445102215REMMET09201/07/16 22:51:02 METAR KPVD 080351Z 00000KT 10SM CLR M04/M09 A3025 RMK AO2 SLP242 T10391094
0238725070147652016010804517+41722-071433FM-15+0019KPVD V0309999C000052200059N0160935N5-00445-00895102365ADDAA101000095GA1005+999999999GD10991+9999999GF100991999999999999999999KA1240M+00721KA2240N-00721MA1102375102145REMMET11701/07/16 23:51:02 METAR KPVD 080451Z 00000KT 10SM CLR M04/M09 A3023 RMK AO2 SLP236 LAST AUGMENTED T10441089 400721072
0968725070147652016010804596+41722-071433SOD  +0019KPVD V030999999999999999999999999999+99999+99999999999ADDAA124000095AJ100009599999999AN1024000095KA1240M+00725KA2240N-00715KG1024W-0033D4KG2024D-0117D4MF1102404102574MG1102394102374OE11240044716099995OE22240035817099995OE33240015699999995RH1024X071D4RH2024N020D4RH3024M045D4REMSOD73924 HR PRECIPITATION (IN): 0.00 SNOW DEPTH (IN):0     24 HR SNOWFALL (IN):0.0  24 HR MAX TEMP (F): 4524 HR MIN TEMP (F): 19AVERAGE STATION PRESSURE:30.235 MINIMUM SEA LEVEL PRESSURE:30.23 TIME OF OCCURRENCE:2359 PEAK WIND SPEED (MPH): 10 PEAK WIND DIR (DEG):160 PEAK WIND TIME (LST):      FASTEST 2MIN SPEED (MPH):  8FASTEST 2MIN DIR (DEG):170 FASTEST 2MIN TIME (LST):     AVERAGE WIND SPEED (MPH): 3.5 24 HR AVG TEMP (F): 32DEPART FROM NORMAL:  3  HEATING DEGREE DAYS: 33 COOLING DEGREE DAYS:  0 LATEST DAY MAX TEMP (0700-1900 LST):45  LATEST NIGHT MIN TEMP(1900-0800 LST):19 HOURLY INCREMENTAL PRECIPITATION VALUES (IN):.00 0.00 0.00 0.00 0.00 0.00 0.00 0.00 0.00 0.00 0.00 0.00 0.00 0.00 0.00 0.00 0.00 0.00 0.00 0.00 0.00 0.00 0.00 0.00
0245725070147652016010805517+41722-071433FM-15+0019KPVD V0309999C000052200059N0160935N5-00335-00835102355ADDAA101000095GA1005+999999999GD10991+9999999GF100991999999999999999999KA1060M+00111KA2060N-00561MA1102375102145MD1790089+9999REMMET11001/08/16 00:51:02 METAR KPVD 080551Z 00000KT 10SM CLR M03/M08 A3023 RMK AO2 SLP235 T10331083 10011 21056 57008
0147725070147652016010806004+41733-071433FM-12+001999999V0209999C000019999999N016000199-00331-00831102351ADDKA1240M+00111KA2240N-00671MA1999999102171MD1710081+9999REMSYN08072507 32966 00000 11033 21083 30217 40235 57008 90551 333 10011 21067 555 90806=
0187725070147652016010806517+41722-071433FM-15+0019KPVD V0303405N002652200059N0160935N5-00285-00725102335ADDAA101000095GA1005+999999999GD10991+9999999GF100991999999999999999999MA1102345102115REMMET09201/08/16 01:51:02 METAR KPVD 080651Z 34005KT 10SM CLR M03/M07 A3022 RMK AO2 SLP233 T10281072
0187725070147652016010807517+41722-071433FM-15+0019KPVD V0303605N003652200059N0160935N5-00225-00675102335ADDAA101000095GA1005+999999999GD10991+9999999GF100991999999999999999999MA1102345102115REMMET09201/08/16 02:51:02 METAR KPVD 080751Z 36007KT 10SM CLR M02/M07 A3022 RMK AO2 SLP233 T10221067
0251725070147652016010808517+41722-071433FM-15+0019KPVD V0303605N004152200059N0160935N5-00225-00565102315ADDAA101000095GA1045+006715999GD12991+0067159GE19AGL   +99999+99999GF104995999999006711999999MA1102305102075MD1890049+9999REMMET10101/08/16 03:51:02 METAR KPVD 080851Z 36008KT 10SM SCT022 M02/M06 A3021 RMK AO2 SLP231 T10221056 58004EQDD01      0ADE726
0194725070147652016010809007+41722-071433FM-16+0019KPVD V0303605N00415007015MN0160935N5-00225-00565999999ADDGA1075+007015999GD13991+0070159GE19MSL   +99999+99999GF199999999999007011999999MA1102305102075REMMET08801/08/16 04:00:02 SPECI KPVD 080900Z 36008KT 10SM BKN023 M02/M06 A3021 RMK AO2 T10221056
0203725070147652016010809467+41722-071433FM-16+0019KPVD V0300105N003152200059N0160935N5-00305-00605999999ADDGA1045+007325999GD12991+0073259GE19AGL   +99999+99999GF104995999999007321999999MA1102305102075REMMET07801/08/16 04:46:02 SPECI KPVD 080946Z 01006KT 10SM SCT024 M03/M06 A3021 RMK AO2EQDD01      0ADE726
0231725070147652016010809517+41722-071433FM-15+0019KPVD V0300105N003152200059N0160935N5-00285-00565102325ADDAA101000095GA1025+007325999GD11991+0073259GE19AGL   +99999+99999GF102995999999007321999999MA1102345102115REMMET09501/08/16 04:51:02 METAR KPVD 080951Z 01006KT 10SM FEW024 M03/M06 A3022 RMK AO2 SLP232 T10281056EQDD01      0ADE726
0290725070147652016010810517+41722-071433FM-15+0019KPVD V0303605N003652200059N0160935N5-00175-00445102365ADDAA101000095GA1025+007625999GA2025+076205999GD11991+0076259GD21991+0762059GE19AGL   +99999+99999GF102995999999007621999999MA1102375102145REMMET12301/08/16 05:51:02 METAR KPVD 081051Z 36007KT 10SM FEW025 FEW250 M02/M04 A3023 RMK AO2 SLP236 FIRST AUGMENTED T10171044 (EH)EQDD01      0ADE726
0146725070147652016010811496+41722-071433FM-16+0019KPVD V0303505N00415007625MN0160935N5-00205-00405999999ADDGA1075+007625999GD13991+0076259MA1102405102175REMMET08801/08/16 06:49:02 SPECI KPVD 081149Z 35008KT 10SM BKN025 M02/M04 A3024 RMK AO2 FIBI (EH)
0275725070147652016010811517+41722-071433FM-15+0019KPVD V0303505N00365007625MN0160935N5-00175-00445102415ADDAA101000095GA1075+007625999GD13991+0076259GE19MSL   +99999+99999GF199999999999007621999999KA1060M-00111KA2060N-00501MA1102405102175MD1390109+9999REMMET11801/08/16 06:51:02 METAR KPVD 081151Z 35007KT 10SM BKN025 M02/M04 A3024 RMK AO2 SLP241 T10171044 11011 21050 53010 (EH)
0211725070147652016010812004+41733-071433FM-12+001999999V0203501N003619999999N016000199-00171-00441102411ADDGA1999+008001999GE19MSL   +99999+99999GF106991999999008001999999KA1240M+00721KA2240N-00561MA1999999102211MD1310101+9999REMSYN08072507 32566 63507 11017 21044 30221 40241 53010 91151 333 10072 21056 555 90812=
0217725070147652016010812517+41722-071433FM-15+0019KPVD V0303605N00365007925MN0160935N5-00115-00395102405ADDAA101000095GA1075+007925999GD13991+0079259GE19MSL   +99999+99999GF199999999999007921999999MA1102405102175REMMET10001/08/16 07:51:02 METAR KPVD 081251Z 36007KT 10SM BKN026 M01/M04 A3024 RMK AO2 SLP240 T10111039 (EH)
0216725070147652016010813517+41722-071433FM-15+0019KPVD V0303505N00415008235MN0160935N5+00115-00285102445ADDAA101000095GA1075+008235999GD13991+0082359GE19MSL   +99999+99999GF199999999999008231999999MA1102445102215REMMET09901/08/16 08:51:02 METAR KPVD 081351Z 35008KT 10SM BKN027 01/M03 A3025 RMK AO2 SLP244 T00111028 (EH)
0236725070147652016010814517+41722-071433FM-15+0019KPVD V0300105N00415007925MN0160935N5+00285-00225102495ADDAA101000095GA1075+007925999GD13991+0079259GE19MSL   +99999+99999GF199999999999007921999999MA1102515102285MD1390089+9999REMMET10501/08/16 09:51:02 METAR KPVD 081451Z 01008KT 10SM BKN026 03/M02 A3027 RMK AO2 SLP249 T00281022 53008 (EH)
0217725070147652016010815517+41722-071433FM-15+0019KPVD V0300205N00515007925MN0160935N5+00395-00175102455ADDAA101000095GA1075+007925999GD13991+0079259GE19MSL   +99999+99999GF199999999999007921999999MA1102475102245REMMET10001/08/16 10:51:02 METAR KPVD 081551Z 02010KT 10SM BKN026 04/M02 A3026 RMK AO2 SLP245 T00391017 (AMB)
0217725070147652016010816517+41722-071433FM-15+0019KPVD V0300105N00575007325MN0160935N5+00395-00175102415ADDAA101000095GA1075+007325999GD13991+0073259GE19MSL   +99999+99999GF199999999999007321999999MA1102405102175REMMET10001/08/16 11:51:02 METAR KPVD 081651Z 01011KT 10SM BKN024 04/M02 A3024 RMK AO2 SLP241 T00391017 (AMB)
0275725070147652016010817517+41722-071433FM-15+0019KPVD V0300105N00415007325MN0160935N5+00445-00115102415ADDAA101000095GA1075+007325999GD13991+0073259GE19MSL   +99999+99999GF199999999999007321999999KA1060M+00441KA2060N-00171MA1102405102175MD1690089+9999REMMET11801/08/16 12:51:02 METAR KPVD 081751Z 01008KT 10SM BKN024 04/M01 A3024 RMK AO2 SLP241 T00441011 10044 21017 56008 (AMB)
0211725070147652016010818004+41733-071433FM-12+001999999V0200101N004119999999N016000199+00441-00111102411ADDGA1999+008001999GE19MSL   +99999+99999GF108991999999008001999999KA1120M+00441KA2120N-00171MA1999999102211MD1610081+9999REMSYN08072507 32566 80108 10044 21011 30221 40241 56008 91751 333 10044 21017 555 90818=
0224725070147652016010818517+41722-071433FM-15+0019KPVD V0300205N00515007625MN0160935N5+00505-00115102365ADDAA101000095GA1085+007625999GD14991+0076259GE19MSL   +99999+99999GF199999999999007621999999MA1102375102145REMMET10701/08/16 13:51:02 METAR KPVD 081851Z 02010KT 10SM OVC025 05/M01 A3023 RMK AO2 SLP236 BINOVC T00501011 (AMB)
0217725070147652016010819517+41722-071433FM-15+0019KPVD V0300205N00465007925MN0160935N5+00445-00115102375ADDAA101000095GA1075+007925999GD13991+0079259GE19MSL   +99999+99999GF199999999999007921999999MA1102375102145REMMET10001/08/16 14:51:02 METAR KPVD 081951Z 02009KT 10SM BKN026 04/M01 A3023 RMK AO2 SLP237 T00441011 (CMT)
0237725070147652016010820517+41722-071433FM-15+0019KPVD V0300205N00415007925MN0160935N5+00445-00115102365ADDAA101000095GA1085+007925999GD14991+0079259GE19MSL   +99999+99999GF199999999999007921999999MA1102375102145MD1690059+9999REMMET10601/08/16 15:51:02 METAR KPVD 082051Z 02008KT 10SM OVC026 04/M01 A3023 RMK AO2 SLP236 T00441011 56005 (CMT)
0217725070147652016010821517+41722-071433FM-15+0019KPVD V0300505N00415007625MN0160935N5+00445-00065102355ADDAA101000095GA1085+007625999GD14991+0076259GE19MSL   +99999+99999GF199999999999007621999999MA1102345102115REMMET10001/08/16 16:51:02 METAR KPVD 082151Z 05008KT 10SM OVC025 04/M01 A3022 RMK AO2 SLP235 T00441006 (CMT)
0216725070147652016010822517+41722-071433FM-15+0019KPVD V0300505N00465007325MN0160935N5+00445+00005102375ADDAA101000095GA1085+007325999GD14991+0073259GE19MSL   +99999+99999GF199999999999007321999999MA1102375102145REMMET09901/08/16 17:51:02 METAR KPVD 082251Z 05009KT 10SM OVC024 04/00 A3023 RMK AO2 SLP237 T00440000 (CMT)
0275725070147652016010823517+41722-071433FM-15+0019KPVD V0300605N00415007325MN0160935N5+00445-00065102405ADDAA101000095GA1085+007325999GD14991+0073259GE19MSL   +99999+99999GF199999999999007321999999KA1060M+00501KA2060N+00391MA1102405102175MD1390049+9999REMMET11801/08/16 18:51:02 METAR KPVD 082351Z 06008KT 10SM OVC024 04/M01 A3024 RMK AO2 SLP240 T00441006 10050 20039 53004 (CMT)
0211725070147652016010900004+41733-071433FM-12+001999999V0200601N004119999999N016000199+00441-00061102401ADDGA1999+008001999GE19MSL   +99999+99999GF108991999999008001999999KA1120M+00501KA2120N-00491MA1999999102211MD1310041+9999REMSYN08072507 32566 80608 10044 21006 30221 40240 53004 92351 333 10050 21049 555 90900=
0211725070147652016010900517+41722-071433FM-15+0019KPVD V0300505N00265007015MN0160935N5+00445-00065102415ADDAA101000095GA1085+007015999GD14991+0070159GE19MSL   +99999+99999GF199999999999007011999999MA1102405102175REMMET09401/08/16 19:51:01 METAR KPVD 090051Z 05005KT 10SM OVC023 04/M01 A3024 RMK AO2 SLP241 T00441006
0211725070147652016010901517+41722-071433FM-15+0019KPVD V0300505N00315007015MN0160935N5+00395-00065102415ADDAA101000095GA1085+007015999GD14991+0070159GE19MSL   +99999+99999GF199999999999007011999999MA1102405102175REMMET09401/08/16 20:51:01 METAR KPVD 090151Z 05006KT 10SM OVC023 04/M01 A3024 RMK AO2 SLP241 T00391006
0230725070147652016010902517+41722-071433FM-15+0019KPVD V0300405N00365008235MN0160935N5+00395+00005102365ADDAA101000095GA1085+008235999GD14991+0082359GE19MSL   +99999+99999GF199999999999008231999999MA1102375102145MD1890049+9999REMMET09901/08/16 21:51:01 METAR KPVD 090251Z 04007KT 10SM OVC027 04/00 A3023 RMK AO2 SLP236 T00390000 58004
0210725070147652016010903517+41722-071433FM-15+0019KPVD V0300205N00215007925MN0160935N5+00395+00005102445ADDAA101000095GA1085+007925999GD14991+0079259GE19MSL   +99999+99999GF199999999999007921999999MA1102445102215REMMET09301/08/16 22:51:01 METAR KPVD 090351Z 02004KT 10SM OVC026 04/00 A3025 RMK AO2 SLP244 T00390000
0261725070147652016010904517+41722-071433FM-15+0019KPVD V0300205N00315007925MN0160935N5+00395+00005102465ADDAA101000095GA1085+007925999GD14991+0079259GE19MSL   +99999+99999GF199999999999007921999999KA1240M+00501KA2240N-00561MA1102475102245REMMET11801/08/16 23:51:02 METAR KPVD 090451Z 02006KT 10SM OVC026 04/00 A3026 RMK AO2 SLP246 LAST AUGMENTED T00390000 400501056
0968725070147652016010904596+41722-071433SOD  +0019KPVD V030999999999999999999999999999+99999+99999999999ADDAA124000095AJ100009599999999AN1024000095KA1240M+00505KA2240N-00555KG1024W+0000D4KG2024D-0028D4MF1102134102404MG1102154102304OE11240076002099995OE22240062601099995OE33240036799999995RH1024X082D4RH2024N065D4RH3024M073D4REMSOD73924 HR PRECIPITATION (IN): 0.00 SNOW DEPTH (IN):0     24 HR SNOWFALL (IN):0.0  24 HR MAX TEMP (F): 4124 HR MIN TEMP (F): 22AVERAGE STATION PRESSURE:30.165 MINIMUM SEA LEVEL PRESSURE:30.21 TIME OF OCCURRENCE:0508 PEAK WIND SPEED (MPH): 17 PEAK WIND DIR (DEG): 20 PEAK WIND TIME (LST):      FASTEST 2MIN SPEED (MPH): 14FASTEST 2MIN DIR (DEG): 10 FASTEST 2MIN TIME (LST):     AVERAGE WIND SPEED (MPH): 8.2 24 HR AVG TEMP (F): 32DEPART FROM NORMAL:  3  HEATING DEGREE DAYS: 33 COOLING DEGREE DAYS:  0 LATEST DAY MAX TEMP (0700-1900 LST):41  LATEST NIGHT MIN TEMP(1900-0800 LST):22 HOURLY INCREMENTAL PRECIPITATION VALUES (IN):.00 0.00 0.00 0.00 0.00 0.00 0.00 0.00 0.00 0.00 0.00 0.00 0.00 0.00 0.00 0.00 0.00 0.00 0.00 0.00 0.00 0.00 0.00 0.00
0268725070147652016010905517+41722-071433FM-15+0019KPVD V0300405N00415008235MN0160935N5+00395+00065102415ADDAA101000095GA1085+008235999GD14991+0082359GE19MSL   +99999+99999GF199999999999008231999999KA1060M+00441KA2060N+00391MA1102405102175MD1090059+9999REMMET11101/09/16 00:51:02 METAR KPVD 090551Z 04008KT 10SM OVC027 04/01 A3024 RMK AO2 SLP241 T00390006 10044 20039 50005
0211725070147652016010906004+41733-071433FM-12+001999999V0200401N004119999999N016000199+00391+00061102411ADDGA1999+008001999GE19MSL   +99999+99999GF108991999999008001999999KA1240M+00441KA2240N-00491MA1999999102211MD1990051+9999REMSYN08072507 35566 80408 10039 20006 30221 40241 50005 90551 333 10044 21049 555 90906=
0210725070147652016010906517+41722-071433FM-15+0019KPVD V0300405N00215007925MN0160935N5+00395+00065102425ADDAA101000095GA1085+007925999GD14991+0079259GE19MSL   +99999+99999GF199999999999007921999999MA1102445102215REMMET09301/09/16 01:51:02 METAR KPVD 090651Z 04004KT 10SM OVC026 04/01 A3025 RMK AO2 SLP242 T00390006
0210725070147652016010907517+41722-071433FM-15+0019KPVD V0300605N00365008535MN0160935N5+00395+00115102385ADDAA101000095GA1085+008535999GD14991+0085359GE19MSL   +99999+99999GF199999999999008531999999MA1102375102145REMMET09301/09/16 02:51:02 METAR KPVD 090751Z 06007KT 10SM OVC028 04/01 A3023 RMK AO2 SLP238 T00390011
0230725070147652016010908517+41722-071433FM-15+0019KPVD V0300505N00365008535MN0160935N5+00335+00115102355ADDAA101000095GA1085+008535999GD14991+0085359GE19MSL   +99999+99999GF199999999999008531999999MA1102375102145MD1890069+9999REMMET09901/09/16 03:51:02 METAR KPVD 090851Z 05007KT 10SM OVC028 03/01 A3023 RMK AO2 SLP235 T00330011 58006
0210725070147652016010909517+41722-071433FM-15+0019KPVD V0300405N00365008535MN0160935N5+00335+00115102355ADDAA101000095GA1085+008535999GD14991+0085359GE19MSL   +99999+99999GF199999999999008531999999MA1102345102115REMMET09301/09/16 04:51:02 METAR KPVD 090951Z 04007KT 10SM OVC028 03/01 A3022 RMK AO2 SLP235 T00330011
0192725070147652016010910277+41722-071433FM-16+0019KPVD V0300605N00365009145MN0160935N5+00335+00175999999ADDGA1085+009145999GD14991+0091459GE19MSL   +99999+99999GF199999999999009141999999MA1102345102115REMMET08601/09/16 05:27:02 SPECI KPVD 091027Z 06007KT 10SM OVC030 03/02 A3022 RMK AO2 T00330017
0160725070147652016010910496+41722-071433FM-16+0019KPVD V0300405N00315008845MN0160935N5+00305+00205999999ADDGA1085+008845999GD14991+0088459MA1102375102145REMMET10201/09/16 05:49:02 SPECI KPVD 091049Z 04006KT 10SM OVC029 03/02 A3023 RMK AO2 FIRST AUGMENTED FIBI (JC)
0231725070147652016010910517+41722-071433FM-15+0019KPVD V0300405N00365008845MN0160935N5+00335+00175102365ADDAA101000095GA1085+008845999GD14991+0088459GE19MSL   +99999+99999GF199999999999008841999999MA1102375102145REMMET11401/09/16 05:51:02 METAR KPVD 091051Z 04007KT 10SM OVC029 03/02 A3023 RMK AO2 SLP236 FIRST AUGMENTED T00330017 (JC)
0144725070147652016010911496+41722-071433FM-16+0019KPVD V0300405N00265009145MN0160935N5+00305+00105999999ADDGA1085+009145999GD14991+0091459MA1102405102175REMMET08601/09/16 06:49:02 SPECI KPVD 091149Z 04005KT 10SM OVC030 03/01 A3024 RMK AO2 FIBI (JC)
0273725070147652016010911517+41722-071433FM-15+0019KPVD V0300305N00265009145MN0160935N5+00335+00115102395ADDAA101000095GA1085+009145999GD14991+0091459GE19MSL   +99999+99999GF199999999999009141999999KA1060M+00391KA2060N+00331MA1102405102175MD1390049+9999REMMET11601/09/16 06:51:02 METAR KPVD 091151Z 03005KT 10SM OVC030 03/01 A3024 RMK AO2 SLP239 T00330011 10039 20033 53004 (JC)
